{
  "contractName": "Barco",
  "abi": [
    {
      "inputs": [
        {
          "internalType": "string",
          "name": "_IMO",
          "type": "string"
        },
        {
          "internalType": "string",
          "name": "_tipoEmbarcacion",
          "type": "string"
        },
        {
          "internalType": "uint256",
          "name": "_eslora",
          "type": "uint256"
        },
        {
          "internalType": "uint256",
          "name": "_manga",
          "type": "uint256"
        },
        {
          "internalType": "string",
          "name": "_motor",
          "type": "string"
        },
        {
          "internalType": "uint256",
          "name": "_fechaBotadura",
          "type": "uint256"
        },
        {
          "internalType": "uint256",
          "name": "_numLicencia",
          "type": "uint256"
        },
        {
          "internalType": "string",
          "name": "_puerto",
          "type": "string"
        },
        {
          "internalType": "uint256",
          "name": "_capacidadCarga",
          "type": "uint256"
        }
      ],
      "payable": false,
      "stateMutability": "nonpayable",
      "type": "constructor"
    },
    {
      "anonymous": false,
      "inputs": [
        {
          "indexed": true,
          "internalType": "address",
          "name": "previousOwner",
          "type": "address"
        },
        {
          "indexed": true,
          "internalType": "address",
          "name": "newOwner",
          "type": "address"
        }
      ],
      "name": "OwnershipTransferred",
      "type": "event"
    },
    {
      "anonymous": false,
      "inputs": [
        {
          "indexed": true,
          "internalType": "address",
          "name": "owner",
          "type": "address"
        },
        {
          "indexed": true,
          "internalType": "address",
          "name": "barcoDir",
          "type": "address"
        }
      ],
      "name": "shipCreated",
      "type": "event"
    },
    {
      "constant": true,
      "inputs": [
        {
          "internalType": "uint256",
          "name": "",
          "type": "uint256"
        }
      ],
      "name": "Tripulacion",
      "outputs": [
        {
          "internalType": "string",
          "name": "DNI",
          "type": "string"
        },
        {
          "internalType": "string",
          "name": "nombre",
          "type": "string"
        },
        {
          "internalType": "string",
          "name": "apellidos",
          "type": "string"
        },
        {
          "internalType": "string",
          "name": "puesto",
          "type": "string"
        },
        {
          "internalType": "uint256",
          "name": "certificado",
          "type": "uint256"
        }
      ],
      "payable": false,
      "stateMutability": "view",
      "type": "function"
    },
    {
      "constant": true,
      "inputs": [],
      "name": "barcoDir",
      "outputs": [
        {
          "internalType": "address",
          "name": "",
          "type": "address"
        }
      ],
      "payable": false,
      "stateMutability": "view",
      "type": "function"
    },
    {
      "constant": true,
      "inputs": [],
      "name": "isOwner",
      "outputs": [
        {
          "internalType": "bool",
          "name": "",
          "type": "bool"
        }
      ],
      "payable": false,
      "stateMutability": "view",
      "type": "function"
    },
    {
      "constant": true,
      "inputs": [],
      "name": "owner",
      "outputs": [
        {
          "internalType": "address",
          "name": "",
          "type": "address"
        }
      ],
      "payable": false,
      "stateMutability": "view",
      "type": "function"
    },
    {
      "constant": false,
      "inputs": [],
      "name": "renounceOwnership",
      "outputs": [],
      "payable": false,
      "stateMutability": "nonpayable",
      "type": "function"
    },
    {
      "constant": false,
      "inputs": [
        {
          "internalType": "address",
          "name": "newOwner",
          "type": "address"
        }
      ],
      "name": "transferOwnership",
      "outputs": [],
      "payable": false,
      "stateMutability": "nonpayable",
      "type": "function"
    },
    {
      "constant": true,
      "inputs": [],
      "name": "getBarco",
      "outputs": [
        {
          "internalType": "string",
          "name": "_IMO",
          "type": "string"
        },
        {
          "internalType": "string",
          "name": "_tipoEmbarcacion",
          "type": "string"
        },
        {
          "internalType": "uint256",
          "name": "_numLicencia",
          "type": "uint256"
        },
        {
          "internalType": "string",
          "name": "_puerto",
          "type": "string"
        }
      ],
      "payable": false,
      "stateMutability": "view",
      "type": "function"
    },
    {
      "constant": false,
      "inputs": [
        {
          "internalType": "string",
          "name": "_puerto",
          "type": "string"
        }
      ],
      "name": "setPuerto",
      "outputs": [],
      "payable": false,
      "stateMutability": "nonpayable",
      "type": "function"
    },
    {
      "constant": false,
      "inputs": [
        {
          "internalType": "string",
          "name": "_DNI",
          "type": "string"
        },
        {
          "internalType": "string",
          "name": "_nombre",
          "type": "string"
        },
        {
          "internalType": "string",
          "name": "_apellidos",
          "type": "string"
        },
        {
          "internalType": "string",
          "name": "_puesto",
          "type": "string"
        },
        {
          "internalType": "uint256",
          "name": "_certificado",
          "type": "uint256"
        }
      ],
      "name": "anyadirTripulante",
      "outputs": [],
      "payable": false,
      "stateMutability": "nonpayable",
      "type": "function"
    },
    {
      "constant": false,
      "inputs": [
        {
          "internalType": "string",
          "name": "_DNI",
          "type": "string"
        }
      ],
      "name": "quitarTripulante",
      "outputs": [],
      "payable": false,
      "stateMutability": "nonpayable",
      "type": "function"
    },
    {
      "constant": true,
      "inputs": [
        {
          "internalType": "string",
          "name": "a",
          "type": "string"
        },
        {
          "internalType": "string",
          "name": "b",
          "type": "string"
        }
      ],
      "name": "compareStrings",
      "outputs": [
        {
          "internalType": "bool",
          "name": "",
          "type": "bool"
        }
      ],
      "payable": false,
      "stateMutability": "pure",
      "type": "function"
    }
  ],
  "bytecode": "0x60806040523480156200001157600080fd5b506040516200258d3803806200258d83398181016040526101208110156200003857600080fd5b81019080805160405193929190846401000000008211156200005957600080fd5b838201915060208201858111156200007057600080fd5b82518660018202830111640100000000821117156200008e57600080fd5b8083526020830192505050908051906020019080838360005b83811015620000c4578082015181840152602081019050620000a7565b50505050905090810190601f168015620000f25780820380516001836020036101000a031916815260200191505b50604052602001805160405193929190846401000000008211156200011657600080fd5b838201915060208201858111156200012d57600080fd5b82518660018202830111640100000000821117156200014b57600080fd5b8083526020830192505050908051906020019080838360005b838110156200018157808201518184015260208101905062000164565b50505050905090810190601f168015620001af5780820380516001836020036101000a031916815260200191505b50604052602001805190602001909291908051906020019092919080516040519392919084640100000000821115620001e757600080fd5b83820191506020820185811115620001fe57600080fd5b82518660018202830111640100000000821117156200021c57600080fd5b8083526020830192505050908051906020019080838360005b838110156200025257808201518184015260208101905062000235565b50505050905090810190601f168015620002805780820380516001836020036101000a031916815260200191505b50604052602001805190602001909291908051906020019092919080516040519392919084640100000000821115620002b857600080fd5b83820191506020820185811115620002cf57600080fd5b8251866001820283011164010000000082111715620002ed57600080fd5b8083526020830192505050908051906020019080838360005b838110156200032357808201518184015260208101905062000306565b50505050905090810190601f168015620003515780820380516001836020036101000a031916815260200191505b5060405260200180519060200190929190505050336000806101000a81548173ffffffffffffffffffffffffffffffffffffffff021916908373ffffffffffffffffffffffffffffffffffffffff1602179055506000809054906101000a900473ffffffffffffffffffffffffffffffffffffffff1673ffffffffffffffffffffffffffffffffffffffff16600073ffffffffffffffffffffffffffffffffffffffff167f8be0079c531659141344cd1fd0a4f28419497f9722a3daafe3b4186f6b6457e060405160405180910390a330600160006101000a81548173ffffffffffffffffffffffffffffffffffffffff021916908373ffffffffffffffffffffffffffffffffffffffff1602179055506040518061012001604052808a81526020018981526020018881526020018781526020018681526020018581526020018481526020018381526020018281525060026000820151816000019080519060200190620004c2929190620005e1565b506020820151816001019080519060200190620004e1929190620005e1565b506040820151816002015560608201518160030155608082015181600401908051906020019062000514929190620005e1565b5060a0820151816005015560c0820151816006015560e082015181600701908051906020019062000547929190620005e1565b506101008201518160080155905050600160009054906101000a900473ffffffffffffffffffffffffffffffffffffffff1673ffffffffffffffffffffffffffffffffffffffff163373ffffffffffffffffffffffffffffffffffffffff167f208c02ac605140c0ba2c728ef2af9505ae6d3d8b3d34d9f7123127b00d1add3c60405160405180910390a350505050505050505062000690565b828054600181600116156101000203166002900490600052602060002090601f016020900481019282601f106200062457805160ff191683800117855562000655565b8280016001018555821562000655579182015b828111156200065457825182559160200191906001019062000637565b5b50905062000664919062000668565b5090565b6200068d91905b80821115620006895760008160009055506001016200066f565b5090565b90565b611eed80620006a06000396000f3fe608060405234801561001057600080fd5b50600436106100a95760003560e01c80638f32d59b116100715780638f32d59b14610538578063bed34bba1461055a578063c6393d3b146106c4578063df8fb250146108b6578063e39539c414610971578063f2fde38b14610a2c576100a9565b80631bae5a6e146100ae57806341fd5058146102105780636bd680c81461025a578063715018a6146104e45780638da5cb5b146104ee575b600080fd5b6100b6610a70565b60405180806020018060200185815260200180602001848103845288818151815260200191508051906020019080838360005b838110156101045780820151818401526020810190506100e9565b50505050905090810190601f1680156101315780820380516001836020036101000a031916815260200191505b50848103835287818151815260200191508051906020019080838360005b8381101561016a57808201518184015260208101905061014f565b50505050905090810190601f1680156101975780820380516001836020036101000a031916815260200191505b50848103825285818151815260200191508051906020019080838360005b838110156101d05780820151818401526020810190506101b5565b50505050905090810190601f1680156101fd5780820380516001836020036101000a031916815260200191505b5097505050505050505060405180910390f35b610218610d75565b604051808273ffffffffffffffffffffffffffffffffffffffff1673ffffffffffffffffffffffffffffffffffffffff16815260200191505060405180910390f35b6104e2600480360360a081101561027057600080fd5b810190808035906020019064010000000081111561028d57600080fd5b82018360208201111561029f57600080fd5b803590602001918460018302840111640100000000831117156102c157600080fd5b91908080601f016020809104026020016040519081016040528093929190818152602001838380828437600081840152601f19601f8201169050808301925050505050505091929192908035906020019064010000000081111561032457600080fd5b82018360208201111561033657600080fd5b8035906020019184600183028401116401000000008311171561035857600080fd5b91908080601f016020809104026020016040519081016040528093929190818152602001838380828437600081840152601f19601f820116905080830192505050505050509192919290803590602001906401000000008111156103bb57600080fd5b8201836020820111156103cd57600080fd5b803590602001918460018302840111640100000000831117156103ef57600080fd5b91908080601f016020809104026020016040519081016040528093929190818152602001838380828437600081840152601f19601f8201169050808301925050505050505091929192908035906020019064010000000081111561045257600080fd5b82018360208201111561046457600080fd5b8035906020019184600183028401116401000000008311171561048657600080fd5b91908080601f016020809104026020016040519081016040528093929190818152602001838380828437600081840152601f19601f82011690508083019250505050505050919291929080359060200190929190505050610d9b565b005b6104ec611005565b005b6104f661113e565b604051808273ffffffffffffffffffffffffffffffffffffffff1673ffffffffffffffffffffffffffffffffffffffff16815260200191505060405180910390f35b610540611167565b604051808215151515815260200191505060405180910390f35b6106aa6004803603604081101561057057600080fd5b810190808035906020019064010000000081111561058d57600080fd5b82018360208201111561059f57600080fd5b803590602001918460018302840111640100000000831117156105c157600080fd5b91908080601f016020809104026020016040519081016040528093929190818152602001838380828437600081840152601f19601f8201169050808301925050505050505091929192908035906020019064010000000081111561062457600080fd5b82018360208201111561063657600080fd5b8035906020019184600183028401116401000000008311171561065857600080fd5b91908080601f016020809104026020016040519081016040528093929190818152602001838380828437600081840152601f19601f8201169050808301925050505050505091929192905050506111be565b604051808215151515815260200191505060405180910390f35b6106f0600480360360208110156106da57600080fd5b81019080803590602001909291905050506112ad565b604051808060200180602001806020018060200186815260200185810385528a818151815260200191508051906020019080838360005b83811015610742578082015181840152602081019050610727565b50505050905090810190601f16801561076f5780820380516001836020036101000a031916815260200191505b50858103845289818151815260200191508051906020019080838360005b838110156107a857808201518184015260208101905061078d565b50505050905090810190601f1680156107d55780820380516001836020036101000a031916815260200191505b50858103835288818151815260200191508051906020019080838360005b8381101561080e5780820151818401526020810190506107f3565b50505050905090810190601f16801561083b5780820380516001836020036101000a031916815260200191505b50858103825287818151815260200191508051906020019080838360005b83811015610874578082015181840152602081019050610859565b50505050905090810190601f1680156108a15780820380516001836020036101000a031916815260200191505b50995050505050505050505060405180910390f35b61096f600480360360208110156108cc57600080fd5b81019080803590602001906401000000008111156108e957600080fd5b8201836020820111156108fb57600080fd5b8035906020019184600183028401116401000000008311171561091d57600080fd5b91908080601f016020809104026020016040519081016040528093929190818152602001838380828437600081840152601f19601f820116905080830192505050505050509192919290505050611550565b005b610a2a6004803603602081101561098757600080fd5b81019080803590602001906401000000008111156109a457600080fd5b8201836020820111156109b657600080fd5b803590602001918460018302840111640100000000831117156109d857600080fd5b91908080601f016020809104026020016040519081016040528093929190818152602001838380828437600081840152601f19601f8201169050808301925050505050505091929192905050506115e7565b005b610a6e60048036036020811015610a4257600080fd5b81019080803573ffffffffffffffffffffffffffffffffffffffff1690602001909291905050506119c0565b005b60608060006060610a7f611b8a565b600260405180610120016040529081600082018054600181600116156101000203166002900480601f016020809104026020016040519081016040528092919081815260200182805460018160011615610100020316600290048015610b265780601f10610afb57610100808354040283529160200191610b26565b820191906000526020600020905b815481529060010190602001808311610b0957829003601f168201915b50505050508152602001600182018054600181600116156101000203166002900480601f016020809104026020016040519081016040528092919081815260200182805460018160011615610100020316600290048015610bc85780601f10610b9d57610100808354040283529160200191610bc8565b820191906000526020600020905b815481529060010190602001808311610bab57829003601f168201915b505050505081526020016002820154815260200160038201548152602001600482018054600181600116156101000203166002900480601f016020809104026020016040519081016040528092919081815260200182805460018160011615610100020316600290048015610c7e5780601f10610c5357610100808354040283529160200191610c7e565b820191906000526020600020905b815481529060010190602001808311610c6157829003601f168201915b505050505081526020016005820154815260200160068201548152602001600782018054600181600116156101000203166002900480601f016020809104026020016040519081016040528092919081815260200182805460018160011615610100020316600290048015610d345780601f10610d0957610100808354040283529160200191610d34565b820191906000526020600020905b815481529060010190602001808311610d1757829003601f168201915b505050505081526020016008820154815250509050806000015181602001518260c001518360e0015183935082925080905094509450945094505090919293565b600160009054906101000a900473ffffffffffffffffffffffffffffffffffffffff1681565b610da3611167565b610e15576040517f08c379a00000000000000000000000000000000000000000000000000000000081526004018080602001828103825260208152602001807f4f776e61626c653a2063616c6c6572206973206e6f7420746865206f776e657281525060200191505060405180910390fd5b600c856040518082805190602001908083835b60208310610e4b5780518252602082019150602081019050602083039250610e28565b6001836020036101000a038019825116818451168082178552505050505050905001915050908152602001604051809103902060009054906101000a900460ff1615610e9657600080fd5b610e9e611bd6565b85816000018190525084816020018190525083816040018190525082816060018190525081816080018181525050600b81908060018154018082558091505090600182039060005260206000209060050201600090919290919091506000820151816000019080519060200190610f16929190611c05565b506020820151816001019080519060200190610f33929190611c05565b506040820151816002019080519060200190610f50929190611c05565b506060820151816003019080519060200190610f6d929190611c05565b50608082015181600401555050506001600c876040518082805190602001908083835b60208310610fb35780518252602082019150602081019050602083039250610f90565b6001836020036101000a038019825116818451168082178552505050505050905001915050908152602001604051809103902060006101000a81548160ff021916908315150217905550505050505050565b61100d611167565b61107f576040517f08c379a00000000000000000000000000000000000000000000000000000000081526004018080602001828103825260208152602001807f4f776e61626c653a2063616c6c6572206973206e6f7420746865206f776e657281525060200191505060405180910390fd5b600073ffffffffffffffffffffffffffffffffffffffff166000809054906101000a900473ffffffffffffffffffffffffffffffffffffffff1673ffffffffffffffffffffffffffffffffffffffff167f8be0079c531659141344cd1fd0a4f28419497f9722a3daafe3b4186f6b6457e060405160405180910390a360008060006101000a81548173ffffffffffffffffffffffffffffffffffffffff021916908373ffffffffffffffffffffffffffffffffffffffff160217905550565b60008060009054906101000a900473ffffffffffffffffffffffffffffffffffffffff16905090565b60008060009054906101000a900473ffffffffffffffffffffffffffffffffffffffff1673ffffffffffffffffffffffffffffffffffffffff163373ffffffffffffffffffffffffffffffffffffffff1614905090565b6000816040516020018082805190602001908083835b602083106111f757805182526020820191506020810190506020830392506111d4565b6001836020036101000a03801982511681845116808217855250505050505090500191505060405160208183030381529060405280519060200120836040516020018082805190602001908083835b602083106112695780518252602082019150602081019050602083039250611246565b6001836020036101000a0380198251168184511680821785525050505050509050019150506040516020818303038152906040528051906020012014905092915050565b600b81815481106112ba57fe5b9060005260206000209060050201600091509050806000018054600181600116156101000203166002900480601f0160208091040260200160405190810160405280929190818152602001828054600181600116156101000203166002900480156113665780601f1061133b57610100808354040283529160200191611366565b820191906000526020600020905b81548152906001019060200180831161134957829003601f168201915b505050505090806001018054600181600116156101000203166002900480601f0160208091040260200160405190810160405280929190818152602001828054600181600116156101000203166002900480156114045780601f106113d957610100808354040283529160200191611404565b820191906000526020600020905b8154815290600101906020018083116113e757829003601f168201915b505050505090806002018054600181600116156101000203166002900480601f0160208091040260200160405190810160405280929190818152602001828054600181600116156101000203166002900480156114a25780601f10611477576101008083540402835291602001916114a2565b820191906000526020600020905b81548152906001019060200180831161148557829003601f168201915b505050505090806003018054600181600116156101000203166002900480601f0160208091040260200160405190810160405280929190818152602001828054600181600116156101000203166002900480156115405780601f1061151557610100808354040283529160200191611540565b820191906000526020600020905b81548152906001019060200180831161152357829003601f168201915b5050505050908060040154905085565b611558611167565b6115ca576040517f08c379a00000000000000000000000000000000000000000000000000000000081526004018080602001828103825260208152602001807f4f776e61626c653a2063616c6c6572206973206e6f7420746865206f776e657281525060200191505060405180910390fd5b80600260070190805190602001906115e3929190611c85565b5050565b6115ef611167565b611661576040517f08c379a00000000000000000000000000000000000000000000000000000000081526004018080602001828103825260208152602001807f4f776e61626c653a2063616c6c6572206973206e6f7420746865206f776e657281525060200191505060405180910390fd5b600c816040518082805190602001908083835b602083106116975780518252602082019150602081019050602083039250611674565b6001836020036101000a038019825116818451168082178552505050505050905001915050908152602001604051809103902060009054906101000a900460ff166116e157600080fd5b60008090505b600b805490508110156119bc576117b4600b828154811061170457fe5b90600052602060002090600502016000018054600181600116156101000203166002900480601f0160208091040260200160405190810160405280929190818152602001828054600181600116156101000203166002900480156117a95780601f1061177e576101008083540402835291602001916117a9565b820191906000526020600020905b81548152906001019060200180831161178c57829003601f168201915b5050505050836111be565b156119af57600b6001600b8054905003815481106117ce57fe5b9060005260206000209060050201600b82815481106117e957fe5b90600052602060002090600502016000820181600001908054600181600116156101000203166002900461181e929190611d05565b5060018201816001019080546001816001161561010002031660029004611846929190611d05565b506002820181600201908054600181600116156101000203166002900461186e929190611d05565b5060038201816003019080546001816001161561010002031660029004611896929190611d05565b5060048201548160040155905050600b6001600b8054905003815481106118b957fe5b9060005260206000209060050201600080820160006118d89190611d8c565b6001820160006118e89190611d8c565b6002820160006118f89190611d8c565b6003820160006119089190611d8c565b60048201600090555050600b8054809190600190036119279190611dd4565b506000600c836040518082805190602001908083835b60208310611960578051825260208201915060208101905060208303925061193d565b6001836020036101000a038019825116818451168082178552505050505050905001915050908152602001604051809103902060006101000a81548160ff0219169083151502179055506119bc565b80806001019150506116e7565b5050565b6119c8611167565b611a3a576040517f08c379a00000000000000000000000000000000000000000000000000000000081526004018080602001828103825260208152602001807f4f776e61626c653a2063616c6c6572206973206e6f7420746865206f776e657281525060200191505060405180910390fd5b611a4381611a46565b50565b600073ffffffffffffffffffffffffffffffffffffffff168173ffffffffffffffffffffffffffffffffffffffff161415611acc576040517f08c379a0000000000000000000000000000000000000000000000000000000008152600401808060200182810382526026815260200180611e936026913960400191505060405180910390fd5b8073ffffffffffffffffffffffffffffffffffffffff166000809054906101000a900473ffffffffffffffffffffffffffffffffffffffff1673ffffffffffffffffffffffffffffffffffffffff167f8be0079c531659141344cd1fd0a4f28419497f9722a3daafe3b4186f6b6457e060405160405180910390a3806000806101000a81548173ffffffffffffffffffffffffffffffffffffffff021916908373ffffffffffffffffffffffffffffffffffffffff16021790555050565b6040518061012001604052806060815260200160608152602001600081526020016000815260200160608152602001600081526020016000815260200160608152602001600081525090565b6040518060a0016040528060608152602001606081526020016060815260200160608152602001600081525090565b828054600181600116156101000203166002900490600052602060002090601f016020900481019282601f10611c4657805160ff1916838001178555611c74565b82800160010185558215611c74579182015b82811115611c73578251825591602001919060010190611c58565b5b509050611c819190611e06565b5090565b828054600181600116156101000203166002900490600052602060002090601f016020900481019282601f10611cc657805160ff1916838001178555611cf4565b82800160010185558215611cf4579182015b82811115611cf3578251825591602001919060010190611cd8565b5b509050611d019190611e06565b5090565b828054600181600116156101000203166002900490600052602060002090601f016020900481019282601f10611d3e5780548555611d7b565b82800160010185558215611d7b57600052602060002091601f016020900482015b82811115611d7a578254825591600101919060010190611d5f565b5b509050611d889190611e06565b5090565b50805460018160011615610100020316600290046000825580601f10611db25750611dd1565b601f016020900490600052602060002090810190611dd09190611e06565b5b50565b815481835581811115611e0157600502816005028360005260206000209182019101611e009190611e2b565b5b505050565b611e2891905b80821115611e24576000816000905550600101611e0c565b5090565b90565b611e8f91905b80821115611e8b5760008082016000611e4a9190611d8c565b600182016000611e5a9190611d8c565b600282016000611e6a9190611d8c565b600382016000611e7a9190611d8c565b600482016000905550600501611e31565b5090565b9056fe4f776e61626c653a206e6577206f776e657220697320746865207a65726f2061646472657373a265627a7a72315820408418c99e2a6420751703b8e70acafa9f88d8d6f8985452c4faeacbdb19bd2064736f6c63430005100032",
  "source": "pragma solidity ^0.5.11; \n\nimport './Libraries/Ownable.sol';\nimport './Libraries/SafeMath.sol'; \n\ncontract Barco is Ownable{\n    \n    using SafeMath for uint;\n    \n    address public barcoDir; // Direccion del contrato\n    Embarcacion barco; \n    // Estructura de datos embarcacin\n    \n    struct Embarcacion{\n        string IMO; //ID nico de la embarcacin ( IMO + 7 digitos) Ej: IMO 8814275\n        string tipoEmbarcacion; //propsito de la embarcacin\n        uint eslora; \n        uint manga;\n        string motor; //tipo de motor\n        uint fechaBotadura; //fecha en formato UNIX timestamp\n        uint numLicencia; //licencia de explotacin del barco\n        string puerto; //puerto en el que est registrado el barco\n        uint capacidadCarga;\n    }\n    \n    // Estructura de datos para el tripulante de la embarcacin\n    \n    struct Tripulante{\n        string DNI;\n        string nombre;\n        string apellidos;\n        string puesto;\n        uint certificado;\n    }\n    \n   Tripulante[] public Tripulacion; \n   mapping (string => bool) Tripulantes; // Mapping de DNI -> Activo\n   \n   // Eventos\n   event shipCreated(address indexed owner, address indexed barcoDir);\n    \n   //Creacin del Barco\n    constructor (string memory _IMO, string memory _tipoEmbarcacion, uint _eslora, uint _manga, \n    string memory _motor, uint _fechaBotadura, uint _numLicencia, string memory _puerto, uint _capacidadCarga) public{\n        barcoDir = address(this);\n        barco = Embarcacion(_IMO, _tipoEmbarcacion, _eslora, _manga,\n        _motor, _fechaBotadura, _numLicencia, _puerto, _capacidadCarga);\n        emit shipCreated(msg.sender, barcoDir);\n    }\n    \n\n    //Informacin completa del Barco\n    function getBarco() public view returns (string memory _IMO, string memory _tipoEmbarcacion,  \n                                            uint _numLicencia, string memory _puerto) {\n        Embarcacion memory b = barco;\n        return (b.IMO, b.tipoEmbarcacion, b.numLicencia, b.puerto);\n    }\n\n    function setPuerto(string memory _puerto) onlyOwner public{\n        barco.puerto = _puerto;\n    }\n    \n\n    function anyadirTripulante(string memory _DNI, string memory _nombre, string memory _apellidos, string memory _puesto,  uint _certificado) onlyOwner public {\n        // La peticion debe ser enviada por el creador y el tripulante no estar en la lista\n        require(!Tripulantes[_DNI]);\n        Tripulante memory tripulante;\n        tripulante.DNI = _DNI;\n        tripulante.nombre = _nombre;\n        tripulante.apellidos = _apellidos;\n        tripulante.puesto = _puesto;\n        tripulante.certificado = _certificado;\n        Tripulacion.push(tripulante);\n        Tripulantes[_DNI] = true;\n    }\n    \n    function quitarTripulante(string memory _DNI) onlyOwner public {\n        // La peticion debe ser enviada por el creador y el tripulante estar en la lista\n        require(Tripulantes[_DNI]);\n        for (uint i=0;i<Tripulacion.length;i++){\n            if(compareStrings(Tripulacion[i].DNI, _DNI)){\n                Tripulacion[i] = Tripulacion[Tripulacion.length-1];\n                delete Tripulacion[Tripulacion.length-1];\n                Tripulacion.length--;\n                Tripulantes[_DNI] = false;\n                break;\n            }\n        }\n    }\n\n    function compareStrings (string memory a, string memory b) public pure returns (bool) {\n        return (keccak256(abi.encodePacked((a))) == keccak256(abi.encodePacked((b))) );\n       }\n\n}\n",
  "sourcePath": "/home/hyperledger/tfm-puertos/tfm-puertos-contracts/contracts/Barco.sol",
  "compiler": {
    "name": "solc",
    "version": "0.5.16+commit.9c3226ce.Emscripten.clang"
  },
  "schemaVersion": "3.2.4",
  "updatedAt": "2020-09-13T11:35:15.241Z",
  "networkType": "ethereum",
  "devdoc": {
    "methods": {
      "isOwner()": {
        "details": "Returns true if the caller is the current owner."
      },
      "owner()": {
        "details": "Returns the address of the current owner."
      },
      "renounceOwnership()": {
        "details": "Leaves the contract without owner. It will not be possible to call `onlyOwner` functions anymore. Can only be called by the current owner.     * > Note: Renouncing ownership will leave the contract without an owner, thereby removing any functionality that is only available to the owner."
      },
      "transferOwnership(address)": {
        "details": "Transfers ownership of the contract to a new account (`newOwner`). Can only be called by the current owner."
      }
    }
  },
  "userdoc": {
    "methods": {}
  }
}