{
  "contractName": "FactoriaStorage",
  "abi": [
    {
      "inputs": [],
      "payable": false,
      "stateMutability": "nonpayable",
      "type": "constructor"
    },
    {
      "anonymous": false,
      "inputs": [
        {
          "indexed": true,
          "internalType": "address",
          "name": "previousOwner",
          "type": "address"
        },
        {
          "indexed": true,
          "internalType": "address",
          "name": "newOwner",
          "type": "address"
        }
      ],
      "name": "FactoryVersionChanged",
      "type": "event"
    },
    {
      "anonymous": false,
      "inputs": [
        {
          "indexed": true,
          "internalType": "address",
          "name": "previousOwner",
          "type": "address"
        },
        {
          "indexed": true,
          "internalType": "address",
          "name": "newOwner",
          "type": "address"
        }
      ],
      "name": "OwnershipTransferred",
      "type": "event"
    },
    {
      "payable": true,
      "stateMutability": "payable",
      "type": "fallback"
    },
    {
      "constant": true,
      "inputs": [
        {
          "internalType": "uint256",
          "name": "",
          "type": "uint256"
        }
      ],
      "name": "barcos",
      "outputs": [
        {
          "internalType": "address",
          "name": "",
          "type": "address"
        }
      ],
      "payable": false,
      "stateMutability": "view",
      "type": "function"
    },
    {
      "constant": true,
      "inputs": [],
      "name": "isOwner",
      "outputs": [
        {
          "internalType": "bool",
          "name": "",
          "type": "bool"
        }
      ],
      "payable": false,
      "stateMutability": "view",
      "type": "function"
    },
    {
      "constant": true,
      "inputs": [],
      "name": "owner",
      "outputs": [
        {
          "internalType": "address",
          "name": "",
          "type": "address"
        }
      ],
      "payable": false,
      "stateMutability": "view",
      "type": "function"
    },
    {
      "constant": false,
      "inputs": [],
      "name": "renounceOwnership",
      "outputs": [],
      "payable": false,
      "stateMutability": "nonpayable",
      "type": "function"
    },
    {
      "constant": false,
      "inputs": [
        {
          "internalType": "address",
          "name": "newOwner",
          "type": "address"
        }
      ],
      "name": "transferOwnership",
      "outputs": [],
      "payable": false,
      "stateMutability": "nonpayable",
      "type": "function"
    },
    {
      "constant": true,
      "inputs": [
        {
          "internalType": "uint256",
          "name": "",
          "type": "uint256"
        }
      ],
      "name": "viajes",
      "outputs": [
        {
          "internalType": "address",
          "name": "",
          "type": "address"
        }
      ],
      "payable": false,
      "stateMutability": "view",
      "type": "function"
    },
    {
      "constant": false,
      "inputs": [
        {
          "internalType": "address",
          "name": "_viaje",
          "type": "address"
        },
        {
          "internalType": "address",
          "name": "_owner",
          "type": "address"
        }
      ],
      "name": "addViaje",
      "outputs": [],
      "payable": false,
      "stateMutability": "nonpayable",
      "type": "function"
    },
    {
      "constant": true,
      "inputs": [],
      "name": "getViajes",
      "outputs": [
        {
          "internalType": "address[]",
          "name": "",
          "type": "address[]"
        }
      ],
      "payable": false,
      "stateMutability": "view",
      "type": "function"
    },
    {
      "constant": false,
      "inputs": [
        {
          "internalType": "address",
          "name": "_barco",
          "type": "address"
        },
        {
          "internalType": "address",
          "name": "_owner",
          "type": "address"
        },
        {
          "internalType": "string",
          "name": "_IMO",
          "type": "string"
        }
      ],
      "name": "addBarco",
      "outputs": [],
      "payable": false,
      "stateMutability": "nonpayable",
      "type": "function"
    },
    {
      "constant": true,
      "inputs": [],
      "name": "getBarcos",
      "outputs": [
        {
          "internalType": "address[]",
          "name": "",
          "type": "address[]"
        }
      ],
      "payable": false,
      "stateMutability": "view",
      "type": "function"
    },
    {
      "constant": false,
      "inputs": [
        {
          "internalType": "address",
          "name": "newFactory",
          "type": "address"
        }
      ],
      "name": "changeFactoryVersion",
      "outputs": [],
      "payable": false,
      "stateMutability": "nonpayable",
      "type": "function"
    },
    {
      "constant": false,
      "inputs": [],
      "name": "newId",
      "outputs": [
        {
          "internalType": "uint256",
          "name": "",
          "type": "uint256"
        }
      ],
      "payable": false,
      "stateMutability": "nonpayable",
      "type": "function"
    },
    {
      "constant": true,
      "inputs": [
        {
          "internalType": "string",
          "name": "_IMO",
          "type": "string"
        }
      ],
      "name": "validIMO",
      "outputs": [
        {
          "internalType": "bool",
          "name": "",
          "type": "bool"
        }
      ],
      "payable": false,
      "stateMutability": "view",
      "type": "function"
    }
  ],
  "bytecode": "0x608060405234801561001057600080fd5b50336000806101000a81548173ffffffffffffffffffffffffffffffffffffffff021916908373ffffffffffffffffffffffffffffffffffffffff1602179055506000809054906101000a900473ffffffffffffffffffffffffffffffffffffffff1673ffffffffffffffffffffffffffffffffffffffff16600073ffffffffffffffffffffffffffffffffffffffff167f8be0079c531659141344cd1fd0a4f28419497f9722a3daafe3b4186f6b6457e060405160405180910390a333600360006101000a81548173ffffffffffffffffffffffffffffffffffffffff021916908373ffffffffffffffffffffffffffffffffffffffff1602179055506113e08061011d6000396000f3fe6080604052600436106100c25760003560e01c80638da5cb5b1161007f578063bfefead611610059578063bfefead614610473578063d4b37df7146104c4578063f2fde38b14610530578063fa9e0f6514610581576100c2565b80638da5cb5b146103725780638f32d59b146103c9578063bd125994146103f8576100c2565b80630a78c9791461013a5780633cb4e1b4146101a65780635242f1a0146102215780635c956fb9146102bf5780636b3e3e41146102ea578063715018a61461035b575b60003414610138576040517f08c379a000000000000000000000000000000000000000000000000000000000815260040180806020018281038252601d8152602001807f4573746520636f6e747261746f206e6f2061636570746120457468657200000081525060200191505060405180910390fd5b005b34801561014657600080fd5b5061014f610647565b6040518080602001828103825283818151815260200191508051906020019060200280838360005b83811015610192578082015181840152602081019050610177565b505050509050019250505060405180910390f35b3480156101b257600080fd5b506101df600480360360208110156101c957600080fd5b8101908080359060200190929190505050610798565b604051808273ffffffffffffffffffffffffffffffffffffffff1673ffffffffffffffffffffffffffffffffffffffff16815260200191505060405180910390f35b34801561022d57600080fd5b506102a56004803603602081101561024457600080fd5b810190808035906020019064010000000081111561026157600080fd5b82018360208201111561027357600080fd5b8035906020019184600183028401116401000000008311171561029557600080fd5b90919293919293905050506107d4565b604051808215151515815260200191505060405180910390f35b3480156102cb57600080fd5b506102d4610865565b6040518082815260200191505060405180910390f35b3480156102f657600080fd5b506103596004803603604081101561030d57600080fd5b81019080803573ffffffffffffffffffffffffffffffffffffffff169060200190929190803573ffffffffffffffffffffffffffffffffffffffff169060200190929190505050610880565b005b34801561036757600080fd5b50610370610a2b565b005b34801561037e57600080fd5b50610387610b64565b604051808273ffffffffffffffffffffffffffffffffffffffff1673ffffffffffffffffffffffffffffffffffffffff16815260200191505060405180910390f35b3480156103d557600080fd5b506103de610b8d565b604051808215151515815260200191505060405180910390f35b34801561040457600080fd5b506104316004803603602081101561041b57600080fd5b8101908080359060200190929190505050610be4565b604051808273ffffffffffffffffffffffffffffffffffffffff1673ffffffffffffffffffffffffffffffffffffffff16815260200191505060405180910390f35b34801561047f57600080fd5b506104c26004803603602081101561049657600080fd5b81019080803573ffffffffffffffffffffffffffffffffffffffff169060200190929190505050610c20565b005b3480156104d057600080fd5b506104d9610cef565b6040518080602001828103825283818151815260200191508051906020019060200280838360005b8381101561051c578082015181840152602081019050610501565b505050509050019250505060405180910390f35b34801561053c57600080fd5b5061057f6004803603602081101561055357600080fd5b81019080803573ffffffffffffffffffffffffffffffffffffffff169060200190929190505050610e40565b005b34801561058d57600080fd5b50610645600480360360608110156105a457600080fd5b81019080803573ffffffffffffffffffffffffffffffffffffffff169060200190929190803573ffffffffffffffffffffffffffffffffffffffff1690602001909291908035906020019064010000000081111561060157600080fd5b82018360208201111561061357600080fd5b8035906020019184600183028401116401000000008311171561063557600080fd5b9091929391929390505050610ec6565b005b6060600360009054906101000a900473ffffffffffffffffffffffffffffffffffffffff1673ffffffffffffffffffffffffffffffffffffffff163373ffffffffffffffffffffffffffffffffffffffff161461070c576040517f08c379a00000000000000000000000000000000000000000000000000000000081526004018080602001828103825260198152602001807f4f6e6c79206c61737420666163746f72792076657273696f6e0000000000000081525060200191505060405180910390fd5b600180548060200260200160405190810160405280929190818152602001828054801561078e57602002820191906000526020600020905b8160009054906101000a900473ffffffffffffffffffffffffffffffffffffffff1673ffffffffffffffffffffffffffffffffffffffff1681526020019060010190808311610744575b5050505050905090565b600281815481106107a557fe5b906000526020600020016000915054906101000a900473ffffffffffffffffffffffffffffffffffffffff1681565b60008073ffffffffffffffffffffffffffffffffffffffff1660068484604051808383808284378083019250505092505050908152602001604051809103902060009054906101000a900473ffffffffffffffffffffffffffffffffffffffff1673ffffffffffffffffffffffffffffffffffffffff16141561085a576000905061085f565b600190505b92915050565b60006001600760008282540192505081905550600754905090565b600360009054906101000a900473ffffffffffffffffffffffffffffffffffffffff1673ffffffffffffffffffffffffffffffffffffffff163373ffffffffffffffffffffffffffffffffffffffff1614610943576040517f08c379a00000000000000000000000000000000000000000000000000000000081526004018080602001828103825260198152602001807f4f6e6c79206c61737420666163746f72792076657273696f6e0000000000000081525060200191505060405180910390fd5b60018290806001815401808255809150509060018203906000526020600020016000909192909190916101000a81548173ffffffffffffffffffffffffffffffffffffffff021916908373ffffffffffffffffffffffffffffffffffffffff1602179055505080600460008473ffffffffffffffffffffffffffffffffffffffff1673ffffffffffffffffffffffffffffffffffffffff16815260200190815260200160002060006101000a81548173ffffffffffffffffffffffffffffffffffffffff021916908373ffffffffffffffffffffffffffffffffffffffff1602179055505050565b610a33610b8d565b610aa5576040517f08c379a00000000000000000000000000000000000000000000000000000000081526004018080602001828103825260208152602001807f4f776e61626c653a2063616c6c6572206973206e6f7420746865206f776e657281525060200191505060405180910390fd5b600073ffffffffffffffffffffffffffffffffffffffff166000809054906101000a900473ffffffffffffffffffffffffffffffffffffffff1673ffffffffffffffffffffffffffffffffffffffff167f8be0079c531659141344cd1fd0a4f28419497f9722a3daafe3b4186f6b6457e060405160405180910390a360008060006101000a81548173ffffffffffffffffffffffffffffffffffffffff021916908373ffffffffffffffffffffffffffffffffffffffff160217905550565b60008060009054906101000a900473ffffffffffffffffffffffffffffffffffffffff16905090565b60008060009054906101000a900473ffffffffffffffffffffffffffffffffffffffff1673ffffffffffffffffffffffffffffffffffffffff163373ffffffffffffffffffffffffffffffffffffffff1614905090565b60018181548110610bf157fe5b906000526020600020016000915054906101000a900473ffffffffffffffffffffffffffffffffffffffff1681565b600360009054906101000a900473ffffffffffffffffffffffffffffffffffffffff1673ffffffffffffffffffffffffffffffffffffffff163373ffffffffffffffffffffffffffffffffffffffff1614610ce3576040517f08c379a00000000000000000000000000000000000000000000000000000000081526004018080602001828103825260198152602001807f4f6e6c79206c61737420666163746f72792076657273696f6e0000000000000081525060200191505060405180910390fd5b610cec816110d9565b50565b6060600360009054906101000a900473ffffffffffffffffffffffffffffffffffffffff1673ffffffffffffffffffffffffffffffffffffffff163373ffffffffffffffffffffffffffffffffffffffff1614610db4576040517f08c379a00000000000000000000000000000000000000000000000000000000081526004018080602001828103825260198152602001807f4f6e6c79206c61737420666163746f72792076657273696f6e0000000000000081525060200191505060405180910390fd5b6002805480602002602001604051908101604052809291908181526020018280548015610e3657602002820191906000526020600020905b8160009054906101000a900473ffffffffffffffffffffffffffffffffffffffff1673ffffffffffffffffffffffffffffffffffffffff1681526020019060010190808311610dec575b5050505050905090565b610e48610b8d565b610eba576040517f08c379a00000000000000000000000000000000000000000000000000000000081526004018080602001828103825260208152602001807f4f776e61626c653a2063616c6c6572206973206e6f7420746865206f776e657281525060200191505060405180910390fd5b610ec381611241565b50565b600360009054906101000a900473ffffffffffffffffffffffffffffffffffffffff1673ffffffffffffffffffffffffffffffffffffffff163373ffffffffffffffffffffffffffffffffffffffff1614610f89576040517f08c379a00000000000000000000000000000000000000000000000000000000081526004018080602001828103825260198152602001807f4f6e6c79206c61737420666163746f72792076657273696f6e0000000000000081525060200191505060405180910390fd5b60028490806001815401808255809150509060018203906000526020600020016000909192909190916101000a81548173ffffffffffffffffffffffffffffffffffffffff021916908373ffffffffffffffffffffffffffffffffffffffff1602179055505082600560008673ffffffffffffffffffffffffffffffffffffffff1673ffffffffffffffffffffffffffffffffffffffff16815260200190815260200160002060006101000a81548173ffffffffffffffffffffffffffffffffffffffff021916908373ffffffffffffffffffffffffffffffffffffffff1602179055508360068383604051808383808284378083019250505092505050908152602001604051809103902060006101000a81548173ffffffffffffffffffffffffffffffffffffffff021916908373ffffffffffffffffffffffffffffffffffffffff16021790555050505050565b600073ffffffffffffffffffffffffffffffffffffffff16600360009054906101000a900473ffffffffffffffffffffffffffffffffffffffff1673ffffffffffffffffffffffffffffffffffffffff161415611181576040517f08c379a00000000000000000000000000000000000000000000000000000000081526004018080602001828103825260268152602001806113866026913960400191505060405180910390fd5b8073ffffffffffffffffffffffffffffffffffffffff16600360009054906101000a900473ffffffffffffffffffffffffffffffffffffffff1673ffffffffffffffffffffffffffffffffffffffff167f93b72544abd70303db982ccf813634dcd3ada25ae1744a04bd1fd0a3b4c83f9060405160405180910390a380600360006101000a81548173ffffffffffffffffffffffffffffffffffffffff021916908373ffffffffffffffffffffffffffffffffffffffff16021790555050565b600073ffffffffffffffffffffffffffffffffffffffff168173ffffffffffffffffffffffffffffffffffffffff1614156112c7576040517f08c379a00000000000000000000000000000000000000000000000000000000081526004018080602001828103825260268152602001806113866026913960400191505060405180910390fd5b8073ffffffffffffffffffffffffffffffffffffffff166000809054906101000a900473ffffffffffffffffffffffffffffffffffffffff1673ffffffffffffffffffffffffffffffffffffffff167f8be0079c531659141344cd1fd0a4f28419497f9722a3daafe3b4186f6b6457e060405160405180910390a3806000806101000a81548173ffffffffffffffffffffffffffffffffffffffff021916908373ffffffffffffffffffffffffffffffffffffffff1602179055505056fe4f776e61626c653a206e6577206f776e657220697320746865207a65726f2061646472657373a265627a7a72315820ce5f96a16a416f93effda0da6e0ce3c3634a5283f6d61b7f45f269caac8c54fd64736f6c63430005100032",
  "source": "pragma solidity ^0.5.11;\n\nimport './Libraries/Ownable.sol';\n\ncontract FactoriaStorage is Ownable{\n    \n    address[] public viajes;\n    address[] public barcos;\n    address factoryAddress;\n    mapping(address => address) viajeOwner;\n    mapping(address => address) barcoOwner;\n    mapping(string => address) IMOBarco;\n    uint id; /// Numerico autoincremental\n    \n    /// Evento para notificar un cambio de version en la factoria\n    /// Indica cual era la direccion de la version anterior de la facotira y la nueva por la que se ha cambiado\n    event FactoryVersionChanged(address indexed previousOwner, address indexed newOwner);\n    \n    constructor() public {\n        factoryAddress = msg.sender;\n    }\n    \n    //// Modificador de acceso. Solo la version actual de factory tiene acceso\n    modifier onlyFactory() {\n        require(msg.sender == factoryAddress, 'Only last factory version');\n        _;\n    }\n    \n    function addViaje(address _viaje, address _owner) onlyFactory external {\n        viajes.push(_viaje);\n        viajeOwner[_viaje] = _owner;\n    }\n    \n    function getViajes() onlyFactory public view returns(address[] memory){\n        return viajes;\n    }\n    \n    function addBarco(address _barco, address _owner,string calldata _IMO) onlyFactory external {\n        barcos.push(_barco);\n        barcoOwner[_barco] = _owner;\n        IMOBarco[_IMO] = _barco;\n    }\n    \n    function getBarcos() onlyFactory public view returns(address[] memory){\n        return barcos;\n    }\n    \n    /// Cuando se quiere desplegar una nueva version de factoria \n    /// la version actual de facotry indica cual es la nueva version de factory\n    function changeFactoryVersion(address newFactory) external onlyFactory {\n        _changeFactoryVersion(newFactory); \n    }\n    \n    function _changeFactoryVersion(address newFactory) internal {\n        require(factoryAddress != address(0), \"Ownable: new owner is the zero address\"); \n        emit FactoryVersionChanged(factoryAddress, newFactory);\n        factoryAddress = newFactory;\n    }\n    \n    // Fallback function\n    function() external payable{\n        require(msg.value == 0, 'Este contrato no acepta Ether');\n    }\n    \n    /// Devulve un nuevo id para viaje\n    function newId() external returns(uint256) {\n        id += 1;\n        return id;\n    }\n    \n    function validIMO(string calldata _IMO) external view returns(bool) {\n        if(IMOBarco[_IMO] == address(0)) return false;\n        else return true;\n    }\n}\n",
  "sourcePath": "/home/hyperledger/tfm-puertos/tfm-puertos-contracts/contracts/FactoriaStorage.sol",
  "compiler": {
    "name": "solc",
    "version": "0.5.16+commit.9c3226ce.Emscripten.clang"
  },
  "schemaVersion": "3.2.4",
  "updatedAt": "2020-09-13T11:35:31.111Z",
  "networkType": "ethereum",
  "devdoc": {
    "methods": {
      "isOwner()": {
        "details": "Returns true if the caller is the current owner."
      },
      "owner()": {
        "details": "Returns the address of the current owner."
      },
      "renounceOwnership()": {
        "details": "Leaves the contract without owner. It will not be possible to call `onlyOwner` functions anymore. Can only be called by the current owner.     * > Note: Renouncing ownership will leave the contract without an owner, thereby removing any functionality that is only available to the owner."
      },
      "transferOwnership(address)": {
        "details": "Transfers ownership of the contract to a new account (`newOwner`). Can only be called by the current owner."
      }
    }
  },
  "userdoc": {
    "methods": {
      "changeFactoryVersion(address)": {
        "notice": "Cuando se quiere desplegar una nueva version de factoria  la version actual de facotry indica cual es la nueva version de factory"
      },
      "newId()": {
        "notice": "Devulve un nuevo id para viaje"
      }
    }
  }
}