{
  "contractName": "FactoriaViaje",
  "abi": [
    {
      "inputs": [],
      "payable": false,
      "stateMutability": "nonpayable",
      "type": "constructor"
    },
    {
      "anonymous": false,
      "inputs": [
        {
          "indexed": true,
          "internalType": "address",
          "name": "_owner",
          "type": "address"
        },
        {
          "indexed": false,
          "internalType": "address",
          "name": "_barco",
          "type": "address"
        }
      ],
      "name": "NewBarco",
      "type": "event"
    },
    {
      "anonymous": false,
      "inputs": [
        {
          "indexed": true,
          "internalType": "address",
          "name": "_owner",
          "type": "address"
        },
        {
          "indexed": false,
          "internalType": "address",
          "name": "_barco",
          "type": "address"
        },
        {
          "indexed": false,
          "internalType": "address",
          "name": "_vaije",
          "type": "address"
        }
      ],
      "name": "NewViaje",
      "type": "event"
    },
    {
      "constant": true,
      "inputs": [],
      "name": "factoriaStorage",
      "outputs": [
        {
          "internalType": "contract FactoriaStorage",
          "name": "",
          "type": "address"
        }
      ],
      "payable": false,
      "stateMutability": "view",
      "type": "function"
    },
    {
      "constant": false,
      "inputs": [
        {
          "internalType": "address",
          "name": "_newOwner",
          "type": "address"
        }
      ],
      "name": "newOwner",
      "outputs": [],
      "payable": false,
      "stateMutability": "nonpayable",
      "type": "function"
    },
    {
      "constant": false,
      "inputs": [
        {
          "internalType": "string",
          "name": "_IMO",
          "type": "string"
        },
        {
          "internalType": "string",
          "name": "_tipoEmbarcacion",
          "type": "string"
        },
        {
          "internalType": "uint256",
          "name": "_eslora",
          "type": "uint256"
        },
        {
          "internalType": "uint256",
          "name": "_manga",
          "type": "uint256"
        },
        {
          "internalType": "string",
          "name": "_motor",
          "type": "string"
        },
        {
          "internalType": "uint256",
          "name": "_fechaBotadura",
          "type": "uint256"
        },
        {
          "internalType": "uint256",
          "name": "_numLicencia",
          "type": "uint256"
        },
        {
          "internalType": "string",
          "name": "_puerto",
          "type": "string"
        },
        {
          "internalType": "uint256",
          "name": "_capacidadCarga",
          "type": "uint256"
        }
      ],
      "name": "createBarco",
      "outputs": [],
      "payable": false,
      "stateMutability": "nonpayable",
      "type": "function"
    },
    {
      "constant": false,
      "inputs": [
        {
          "internalType": "uint256",
          "name": "_ID",
          "type": "uint256"
        },
        {
          "internalType": "string",
          "name": "_empresa",
          "type": "string"
        },
        {
          "internalType": "string",
          "name": "_puertoIni",
          "type": "string"
        },
        {
          "internalType": "string",
          "name": "_proposito",
          "type": "string"
        },
        {
          "internalType": "address",
          "name": "_barcoDir",
          "type": "address"
        }
      ],
      "name": "createTravel",
      "outputs": [],
      "payable": false,
      "stateMutability": "nonpayable",
      "type": "function"
    },
    {
      "constant": true,
      "inputs": [],
      "name": "getBarcos",
      "outputs": [
        {
          "internalType": "address[]",
          "name": "",
          "type": "address[]"
        }
      ],
      "payable": false,
      "stateMutability": "view",
      "type": "function"
    },
    {
      "constant": true,
      "inputs": [],
      "name": "getViajes",
      "outputs": [
        {
          "internalType": "address[]",
          "name": "",
          "type": "address[]"
        }
      ],
      "payable": false,
      "stateMutability": "view",
      "type": "function"
    },
    {
      "constant": false,
      "inputs": [
        {
          "internalType": "address",
          "name": "newFactory",
          "type": "address"
        }
      ],
      "name": "changeFactoryVersion",
      "outputs": [],
      "payable": false,
      "stateMutability": "nonpayable",
      "type": "function"
    }
  ],
  "bytecode": "0x608060405234801561001057600080fd5b5060405161001d906100bf565b604051809103906000f080158015610039573d6000803e3d6000fd5b506000806101000a81548173ffffffffffffffffffffffffffffffffffffffff021916908373ffffffffffffffffffffffffffffffffffffffff16021790555033600160006101000a81548173ffffffffffffffffffffffffffffffffffffffff021916908373ffffffffffffffffffffffffffffffffffffffff1602179055506100cd565b6114fd8062005fdd83390190565b615f0080620000dd6000396000f3fe60806040523480156200001157600080fd5b5060043610620000885760003560e01c8063bfefead61162000063578063bfefead61462000183578063c8484e0414620001ca578063c9e4032114620003e9578063d4b37df714620006ab5762000088565b80630a78c979146200008d5780637bdcb3ef14620000f057806385952454146200013c575b600080fd5b620000976200070e565b6040518080602001828103825283818151815260200191508051906020019060200280838360005b83811015620000dc578082015181840152602081019050620000bf565b505050509050019250505060405180910390f35b620000fa62000859565b604051808273ffffffffffffffffffffffffffffffffffffffff1673ffffffffffffffffffffffffffffffffffffffff16815260200191505060405180910390f35b62000181600480360360208110156200015457600080fd5b81019080803573ffffffffffffffffffffffffffffffffffffffff1690602001909291905050506200087e565b005b620001c8600480360360208110156200019b57600080fd5b81019080803573ffffffffffffffffffffffffffffffffffffffff1690602001909291905050506200096a565b005b620003e7600480360360a0811015620001e257600080fd5b8101908080359060200190929190803590602001906401000000008111156200020a57600080fd5b8201836020820111156200021d57600080fd5b803590602001918460018302840111640100000000831117156200024057600080fd5b91908080601f016020809104026020016040519081016040528093929190818152602001838380828437600081840152601f19601f82011690508083019250505050505050919291929080359060200190640100000000811115620002a457600080fd5b820183602082011115620002b757600080fd5b80359060200191846001830284011164010000000083111715620002da57600080fd5b91908080601f016020809104026020016040519081016040528093929190818152602001838380828437600081840152601f19601f820116905080830192505050505050509192919290803590602001906401000000008111156200033e57600080fd5b8201836020820111156200035157600080fd5b803590602001918460018302840111640100000000831117156200037457600080fd5b91908080601f016020809104026020016040519081016040528093929190818152602001838380828437600081840152601f19601f820116905080830192505050505050509192919290803573ffffffffffffffffffffffffffffffffffffffff16906020019092919050505062000ad5565b005b620006a960048036036101208110156200040257600080fd5b81019080803590602001906401000000008111156200042057600080fd5b8201836020820111156200043357600080fd5b803590602001918460018302840111640100000000831117156200045657600080fd5b91908080601f016020809104026020016040519081016040528093929190818152602001838380828437600081840152601f19601f82011690508083019250505050505050919291929080359060200190640100000000811115620004ba57600080fd5b820183602082011115620004cd57600080fd5b80359060200191846001830284011164010000000083111715620004f057600080fd5b91908080601f016020809104026020016040519081016040528093929190818152602001838380828437600081840152601f19601f8201169050808301925050505050505091929192908035906020019092919080359060200190929190803590602001906401000000008111156200056857600080fd5b8201836020820111156200057b57600080fd5b803590602001918460018302840111640100000000831117156200059e57600080fd5b91908080601f016020809104026020016040519081016040528093929190818152602001838380828437600081840152601f19601f8201169050808301925050505050505091929192908035906020019092919080359060200190929190803590602001906401000000008111156200061657600080fd5b8201836020820111156200062957600080fd5b803590602001918460018302840111640100000000831117156200064c57600080fd5b91908080601f016020809104026020016040519081016040528093929190818152602001838380828437600081840152601f19601f8201169050808301925050505050505091929192908035906020019092919050505062000fda565b005b620006b562001472565b6040518080602001828103825283818151815260200191508051906020019060200280838360005b83811015620006fa578082015181840152602081019050620006dd565b505050509050019250505060405180910390f35b60606000809054906101000a900473ffffffffffffffffffffffffffffffffffffffff1673ffffffffffffffffffffffffffffffffffffffff16630a78c9796040518163ffffffff1660e01b815260040160006040518083038186803b1580156200077857600080fd5b505afa1580156200078d573d6000803e3d6000fd5b505050506040513d6000823e3d601f19601f820116820180604052506020811015620007b857600080fd5b8101908080516040519392919084640100000000821115620007d957600080fd5b83820191506020820185811115620007f057600080fd5b82518660208202830111640100000000821117156200080e57600080fd5b8083526020830192505050908051906020019060200280838360005b83811015620008475780820151818401526020810190506200082a565b50505050905001604052505050905090565b6000809054906101000a900473ffffffffffffffffffffffffffffffffffffffff1681565b3373ffffffffffffffffffffffffffffffffffffffff16600160009054906101000a900473ffffffffffffffffffffffffffffffffffffffff1673ffffffffffffffffffffffffffffffffffffffff161462000926576040517f08c379a000000000000000000000000000000000000000000000000000000000815260040180806020018281038252602181526020018062005e686021913960400191505060405180910390fd5b80600160006101000a81548173ffffffffffffffffffffffffffffffffffffffff021916908373ffffffffffffffffffffffffffffffffffffffff16021790555050565b3373ffffffffffffffffffffffffffffffffffffffff16600160009054906101000a900473ffffffffffffffffffffffffffffffffffffffff1673ffffffffffffffffffffffffffffffffffffffff161462000a12576040517f08c379a000000000000000000000000000000000000000000000000000000000815260040180806020018281038252602181526020018062005e686021913960400191505060405180910390fd5b60008060009054906101000a900473ffffffffffffffffffffffffffffffffffffffff1690508073ffffffffffffffffffffffffffffffffffffffff1663bfefead6836040518263ffffffff1660e01b8152600401808273ffffffffffffffffffffffffffffffffffffffff1673ffffffffffffffffffffffffffffffffffffffff168152602001915050600060405180830381600087803b15801562000ab857600080fd5b505af115801562000acd573d6000803e3d6000fd5b505050505050565b3373ffffffffffffffffffffffffffffffffffffffff168173ffffffffffffffffffffffffffffffffffffffff16638da5cb5b6040518163ffffffff1660e01b815260040160206040518083038186803b15801562000b3357600080fd5b505afa15801562000b48573d6000803e3d6000fd5b505050506040513d602081101562000b5f57600080fd5b810190808051906020019092919050505073ffffffffffffffffffffffffffffffffffffffff161462000bde576040517f08c379a000000000000000000000000000000000000000000000000000000000815260040180806020018281038252604381526020018062005e896043913960600191505060405180910390fd5b6000858585858560405162000bf390620015bd565b808681526020018060200180602001806020018573ffffffffffffffffffffffffffffffffffffffff1673ffffffffffffffffffffffffffffffffffffffff168152602001848103845288818151815260200191508051906020019080838360005b8381101562000c7257808201518184015260208101905062000c55565b50505050905090810190601f16801562000ca05780820380516001836020036101000a031916815260200191505b50848103835287818151815260200191508051906020019080838360005b8381101562000cdb57808201518184015260208101905062000cbe565b50505050905090810190601f16801562000d095780820380516001836020036101000a031916815260200191505b50848103825286818151815260200191508051906020019080838360005b8381101562000d4457808201518184015260208101905062000d27565b50505050905090810190601f16801562000d725780820380516001836020036101000a031916815260200191505b5098505050505050505050604051809103906000f08015801562000d9a573d6000803e3d6000fd5b5090508073ffffffffffffffffffffffffffffffffffffffff1663f2fde38b336040518263ffffffff1660e01b8152600401808273ffffffffffffffffffffffffffffffffffffffff1673ffffffffffffffffffffffffffffffffffffffff168152602001915050600060405180830381600087803b15801562000e1d57600080fd5b505af115801562000e32573d6000803e3d6000fd5b505050506000809054906101000a900473ffffffffffffffffffffffffffffffffffffffff1673ffffffffffffffffffffffffffffffffffffffff16636b3e3e4182336040518363ffffffff1660e01b8152600401808373ffffffffffffffffffffffffffffffffffffffff1673ffffffffffffffffffffffffffffffffffffffff1681526020018273ffffffffffffffffffffffffffffffffffffffff1673ffffffffffffffffffffffffffffffffffffffff16815260200192505050600060405180830381600087803b15801562000f0b57600080fd5b505af115801562000f20573d6000803e3d6000fd5b505050503373ffffffffffffffffffffffffffffffffffffffff167f4bc561bfb0a129570a83b9d7efd50f7deb07a3c3b48993770084901dbd624e1a8383604051808373ffffffffffffffffffffffffffffffffffffffff1673ffffffffffffffffffffffffffffffffffffffff1681526020018273ffffffffffffffffffffffffffffffffffffffff1673ffffffffffffffffffffffffffffffffffffffff1681526020019250505060405180910390a2505050505050565b600089898989898989898960405162000ff390620015cb565b8080602001806020018a8152602001898152602001806020018881526020018781526020018060200186815260200185810385528e818151815260200191508051906020019080838360005b838110156200105c5780820151818401526020810190506200103f565b50505050905090810190601f1680156200108a5780820380516001836020036101000a031916815260200191505b5085810384528d818151815260200191508051906020019080838360005b83811015620010c5578082015181840152602081019050620010a8565b50505050905090810190601f168015620010f35780820380516001836020036101000a031916815260200191505b5085810383528a818151815260200191508051906020019080838360005b838110156200112e57808201518184015260208101905062001111565b50505050905090810190601f1680156200115c5780820380516001836020036101000a031916815260200191505b50858103825287818151815260200191508051906020019080838360005b83811015620011975780820151818401526020810190506200117a565b50505050905090810190601f168015620011c55780820380516001836020036101000a031916815260200191505b509d5050505050505050505050505050604051809103906000f080158015620011f2573d6000803e3d6000fd5b5090508073ffffffffffffffffffffffffffffffffffffffff1663f2fde38b336040518263ffffffff1660e01b8152600401808273ffffffffffffffffffffffffffffffffffffffff1673ffffffffffffffffffffffffffffffffffffffff168152602001915050600060405180830381600087803b1580156200127557600080fd5b505af11580156200128a573d6000803e3d6000fd5b505050506000809054906101000a900473ffffffffffffffffffffffffffffffffffffffff1673ffffffffffffffffffffffffffffffffffffffff1663fa9e0f6582338d6040518463ffffffff1660e01b8152600401808473ffffffffffffffffffffffffffffffffffffffff1673ffffffffffffffffffffffffffffffffffffffff1681526020018373ffffffffffffffffffffffffffffffffffffffff1673ffffffffffffffffffffffffffffffffffffffff16815260200180602001828103825283818151815260200191508051906020019080838360005b838110156200138357808201518184015260208101905062001366565b50505050905090810190601f168015620013b15780820380516001836020036101000a031916815260200191505b50945050505050600060405180830381600087803b158015620013d357600080fd5b505af1158015620013e8573d6000803e3d6000fd5b505050503373ffffffffffffffffffffffffffffffffffffffff167f11ae96fd9e40ca15ac7dcdd8355a8dd77bb782441547f67f993da2c63d5ab37982604051808273ffffffffffffffffffffffffffffffffffffffff1673ffffffffffffffffffffffffffffffffffffffff16815260200191505060405180910390a250505050505050505050565b60606000809054906101000a900473ffffffffffffffffffffffffffffffffffffffff1673ffffffffffffffffffffffffffffffffffffffff1663d4b37df76040518163ffffffff1660e01b815260040160006040518083038186803b158015620014dc57600080fd5b505afa158015620014f1573d6000803e3d6000fd5b505050506040513d6000823e3d601f19601f8201168201806040525060208110156200151c57600080fd5b81019080805160405193929190846401000000008211156200153d57600080fd5b838201915060208201858111156200155457600080fd5b82518660208202830111640100000000821117156200157257600080fd5b8083526020830192505050908051906020019060200280838360005b83811015620015ab5780820151818401526020810190506200158e565b50505050905001604052505050905090565b61230180620015da83390190565b61258d80620038db8339019056fe60806040523480156200001157600080fd5b506040516200230138038062002301833981810160405260a08110156200003757600080fd5b8101908080519060200190929190805160405193929190846401000000008211156200006257600080fd5b838201915060208201858111156200007957600080fd5b82518660018202830111640100000000821117156200009757600080fd5b8083526020830192505050908051906020019080838360005b83811015620000cd578082015181840152602081019050620000b0565b50505050905090810190601f168015620000fb5780820380516001836020036101000a031916815260200191505b50604052602001805160405193929190846401000000008211156200011f57600080fd5b838201915060208201858111156200013657600080fd5b82518660018202830111640100000000821117156200015457600080fd5b8083526020830192505050908051906020019080838360005b838110156200018a5780820151818401526020810190506200016d565b50505050905090810190601f168015620001b85780820380516001836020036101000a031916815260200191505b5060405260200180516040519392919084640100000000821115620001dc57600080fd5b83820191506020820185811115620001f357600080fd5b82518660018202830111640100000000821117156200021157600080fd5b8083526020830192505050908051906020019080838360005b83811015620002475780820151818401526020810190506200022a565b50505050905090810190601f168015620002755780820380516001836020036101000a031916815260200191505b5060405260200180519060200190929190505050336000806101000a81548173ffffffffffffffffffffffffffffffffffffffff021916908373ffffffffffffffffffffffffffffffffffffffff1602179055506000809054906101000a900473ffffffffffffffffffffffffffffffffffffffff1673ffffffffffffffffffffffffffffffffffffffff16600073ffffffffffffffffffffffffffffffffffffffff167f8be0079c531659141344cd1fd0a4f28419497f9722a3daafe3b4186f6b6457e060405160405180910390a330600260006101000a81548173ffffffffffffffffffffffffffffffffffffffff021916908373ffffffffffffffffffffffffffffffffffffffff16021790555080600160006101000a81548173ffffffffffffffffffffffffffffffffffffffff021916908373ffffffffffffffffffffffffffffffffffffffff160217905550846003600001819055508360036001019080519060200190620003ec9291906200054c565b508260036002019080519060200190620004089291906200054c565b506040518060400160405280600481526020017f4e6f6e6500000000000000000000000000000000000000000000000000000000815250600380019080519060200190620004589291906200054c565b508160036004019080519060200190620004749291906200054c565b506000600360070160006101000a81548160ff021916908360038111156200049857fe5b02179055506000600360070160016101000a81548160ff02191690836004811115620004c057fe5b0217905550600260009054906101000a900473ffffffffffffffffffffffffffffffffffffffff1673ffffffffffffffffffffffffffffffffffffffff163373ffffffffffffffffffffffffffffffffffffffff167f1b908132b647fdcf977587ebd802d70ada3639d8ed216da079ce1b8351c3914160405160405180910390a35050505050620005fb565b828054600181600116156101000203166002900490600052602060002090601f016020900481019282601f106200058f57805160ff1916838001178555620005c0565b82800160010185558215620005c0579182015b82811115620005bf578251825591602001919060010190620005a2565b5b509050620005cf9190620005d3565b5090565b620005f891905b80821115620005f4576000816000905550600101620005da565b5090565b90565b611cf6806200060b6000396000f3fe608060405234801561001057600080fd5b50600436106101215760003560e01c80638f32d59b116100ad578063c5eaa12911610071578063c5eaa129146106b4578063d47c10dd1461075b578063e0b4a25014610765578063e546ebd71461076f578063f2fde38b146107a757610121565b80638f32d59b146103d85780639a6f108e146103fa5780639afd6cb31461047d578063afaf814f146104c7578063bed34bba1461054a57610121565b806375decf59116100f457806375decf591461018e5780637b63b1de146101985780637debdde914610366578063896dd58a146103845780638da5cb5b1461038e57610121565b80632048343d1461012657806341fd50581461013057806366fc6f381461017a578063715018a614610184575b600080fd5b61012e6107eb565b005b610138610952565b604051808273ffffffffffffffffffffffffffffffffffffffff1673ffffffffffffffffffffffffffffffffffffffff16815260200191505060405180910390f35b610182610978565b005b61018c610ac3565b005b610196610bfc565b005b6101a0610d20565b6040518086815260200180602001806020018060200180602001858103855289818151815260200191508051906020019080838360005b838110156101f25780820151818401526020810190506101d7565b50505050905090810190601f16801561021f5780820380516001836020036101000a031916815260200191505b50858103845288818151815260200191508051906020019080838360005b8381101561025857808201518184015260208101905061023d565b50505050905090810190601f1680156102855780820380516001836020036101000a031916815260200191505b50858103835287818151815260200191508051906020019080838360005b838110156102be5780820151818401526020810190506102a3565b50505050905090810190601f1680156102eb5780820380516001836020036101000a031916815260200191505b50858103825286818151815260200191508051906020019080838360005b83811015610324578082015181840152602081019050610309565b50505050905090810190601f1680156103515780820380516001836020036101000a031916815260200191505b50995050505050505050505060405180910390f35b61036e610e91565b6040518082815260200191505060405180910390f35b61038c610ef0565b005b610396610fc7565b604051808273ffffffffffffffffffffffffffffffffffffffff1673ffffffffffffffffffffffffffffffffffffffff16815260200191505060405180910390f35b6103e0610ff0565b604051808215151515815260200191505060405180910390f35b610402611047565b6040518080602001828103825283818151815260200191508051906020019080838360005b83811015610442578082015181840152602081019050610427565b50505050905090810190601f16801561046f5780820380516001836020036101000a031916815260200191505b509250505060405180910390f35b610485611272565b604051808273ffffffffffffffffffffffffffffffffffffffff1673ffffffffffffffffffffffffffffffffffffffff16815260200191505060405180910390f35b6104cf611298565b6040518080602001828103825283818151815260200191508051906020019080838360005b8381101561050f5780820151818401526020810190506104f4565b50505050905090810190601f16801561053c5780820380516001836020036101000a031916815260200191505b509250505060405180910390f35b61069a6004803603604081101561056057600080fd5b810190808035906020019064010000000081111561057d57600080fd5b82018360208201111561058f57600080fd5b803590602001918460018302840111640100000000831117156105b157600080fd5b91908080601f016020809104026020016040519081016040528093929190818152602001838380828437600081840152601f19601f8201169050808301925050505050505091929192908035906020019064010000000081111561061457600080fd5b82018360208201111561062657600080fd5b8035906020019184600183028401116401000000008311171561064857600080fd5b91908080601f016020809104026020016040519081016040528093929190818152602001838380828437600081840152601f19601f820116905080830192505050505050509192919290505050611455565b604051808215151515815260200191505060405180910390f35b6106bc611544565b604051808060200180602001838103835285818151815260200191508051906020019060200280838360005b838110156107035780820151818401526020810190506106e8565b50505050905001838103825284818151815260200191508051906020019060200280838360005b8381101561074557808201518184015260208101905061072a565b5050505090500194505050505060405180910390f35b610763611633565b005b61076d61170b565b005b6107a56004803603604081101561078557600080fd5b810190808035906020019092919080359060200190929190505050611862565b005b6107e9600480360360208110156107bd57600080fd5b81019080803573ffffffffffffffffffffffffffffffffffffffff169060200190929190505050611a3b565b005b6107f3610ff0565b610865576040517f08c379a00000000000000000000000000000000000000000000000000000000081526004018080602001828103825260208152602001807f4f776e61626c653a2063616c6c6572206973206e6f7420746865206f776e657281525060200191505060405180910390fd5b6001600481111561087257fe5b600360070160019054906101000a900460ff16600481111561089057fe5b14610903576040517f08c379a000000000000000000000000000000000000000000000000000000000815260040180806020018281038252601f8152602001807f456c207669616a65206465626520646520657374617220656e20637572736f0081525060200191505060405180910390fd5b60038060070160016101000a81548160ff0219169083600481111561092457fe5b02179055506000600360070160006101000a81548160ff0219169083600381111561094b57fe5b0217905550565b600160009054906101000a900473ffffffffffffffffffffffffffffffffffffffff1681565b610980610ff0565b6109f2576040517f08c379a00000000000000000000000000000000000000000000000000000000081526004018080602001828103825260208152602001807f4f776e61626c653a2063616c6c6572206973206e6f7420746865206f776e657281525060200191505060405180910390fd5b600060048111156109ff57fe5b600360070160019054906101000a900460ff166004811115610a1d57fe5b14610a73576040517f08c379a0000000000000000000000000000000000000000000000000000000008152600401808060200182810382526022815260200180611ca06022913960400191505060405180910390fd5b6001600360070160016101000a81548160ff02191690836004811115610a9557fe5b02179055506001600360070160006101000a81548160ff02191690836003811115610abc57fe5b0217905550565b610acb610ff0565b610b3d576040517f08c379a00000000000000000000000000000000000000000000000000000000081526004018080602001828103825260208152602001807f4f776e61626c653a2063616c6c6572206973206e6f7420746865206f776e657281525060200191505060405180910390fd5b600073ffffffffffffffffffffffffffffffffffffffff166000809054906101000a900473ffffffffffffffffffffffffffffffffffffffff1673ffffffffffffffffffffffffffffffffffffffff167f8be0079c531659141344cd1fd0a4f28419497f9722a3daafe3b4186f6b6457e060405160405180910390a360008060006101000a81548173ffffffffffffffffffffffffffffffffffffffff021916908373ffffffffffffffffffffffffffffffffffffffff160217905550565b610c04610ff0565b610c76576040517f08c379a00000000000000000000000000000000000000000000000000000000081526004018080602001828103825260208152602001807f4f776e61626c653a2063616c6c6572206973206e6f7420746865206f776e657281525060200191505060405180910390fd5b60036004811115610c8357fe5b600360070160019054906101000a900460ff166004811115610ca157fe5b14610cf7576040517f08c379a0000000000000000000000000000000000000000000000000000000008152600401808060200182810382526023815260200180611c5c6023913960400191505060405180910390fd5b6002600360070160016101000a81548160ff02191690836004811115610d1957fe5b0217905550565b600060608060608060036000015460036002016003600401610d40611047565b610d48611298565b838054600181600116156101000203166002900480601f016020809104026020016040519081016040528092919081815260200182805460018160011615610100020316600290048015610ddd5780601f10610db257610100808354040283529160200191610ddd565b820191906000526020600020905b815481529060010190602001808311610dc057829003601f168201915b50505050509350828054600181600116156101000203166002900480601f016020809104026020016040519081016040528092919081815260200182805460018160011615610100020316600290048015610e795780601f10610e4e57610100808354040283529160200191610e79565b820191906000526020600020905b815481529060010190602001808311610e5c57829003601f168201915b50505050509250945094509450945094509091929394565b6000806004811115610e9f57fe5b600360070160019054906101000a900460ff166004811115610ebd57fe5b1415610ec857600080fd5b600360050160036005018054905081548110610ee057fe5b9060005260206000200154905090565b610ef8610ff0565b610f6a576040517f08c379a00000000000000000000000000000000000000000000000000000000081526004018080602001828103825260208152602001807f4f776e61626c653a2063616c6c6572206973206e6f7420746865206f776e657281525060200191505060405180910390fd5b60026003811115610f7757fe5b600360070160009054906101000a900460ff166003811115610f9557fe5b14610f9f57600080fd5b60038060070160006101000a81548160ff02191690836003811115610fc057fe5b0217905550565b60008060009054906101000a900473ffffffffffffffffffffffffffffffffffffffff16905090565b60008060009054906101000a900473ffffffffffffffffffffffffffffffffffffffff1673ffffffffffffffffffffffffffffffffffffffff163373ffffffffffffffffffffffffffffffffffffffff1614905090565b60606001600481111561105657fe5b600360070160019054906101000a900460ff16600481111561107457fe5b14156110b7576040518060400160405280600881526020017f456e20637572736f000000000000000000000000000000000000000000000000815250905061126f565b600060048111156110c457fe5b600360070160019054906101000a900460ff1660048111156110e257fe5b1415611125576040518060400160405280600b81526020017f4e6f20696e69636961646f000000000000000000000000000000000000000000815250905061126f565b6002600481111561113257fe5b600360070160019054906101000a900460ff16600481111561115057fe5b1415611193576040518060400160405280600a81526020017f46696e616c697a61646f00000000000000000000000000000000000000000000815250905061126f565b600360048111156111a057fe5b600360070160019054906101000a900460ff1660048111156111be57fe5b1415611201576040518060400160405280600981526020017f526576697369c3b36e0000000000000000000000000000000000000000000000815250905061126f565b60048081111561120d57fe5b600360070160019054906101000a900460ff16600481111561122b57fe5b141561126e576040518060400160405280600981526020017f4e6f2076616c69646f0000000000000000000000000000000000000000000000815250905061126f565b5b90565b600260009054906101000a900473ffffffffffffffffffffffffffffffffffffffff1681565b6060600060038111156112a757fe5b600360070160009054906101000a900460ff1660038111156112c557fe5b1415611308576040518060400160405280600881526020017f416d61727261646f0000000000000000000000000000000000000000000000008152509050611452565b6001600381111561131557fe5b600360070160009054906101000a900460ff16600381111561133357fe5b1415611376576040518060400160405280600881526020017f53616c69656e646f0000000000000000000000000000000000000000000000008152509050611452565b6002600381111561138357fe5b600360070160009054906101000a900460ff1660038111156113a157fe5b14156113e4576040518060400160405280600881526020017f50657363616e646f0000000000000000000000000000000000000000000000008152509050611452565b6003808111156113f057fe5b600360070160009054906101000a900460ff16600381111561140e57fe5b1415611451576040518060400160405280600a81526020017f526567726573616e646f000000000000000000000000000000000000000000008152509050611452565b5b90565b6000816040516020018082805190602001908083835b6020831061148e578051825260208201915060208101905060208303925061146b565b6001836020036101000a03801982511681845116808217855250505050505090500191505060405160208183030381529060405280519060200120836040516020018082805190602001908083835b6020831061150057805182526020820191506020810190506020830392506114dd565b6001836020036101000a0380198251168184511680821785525050505050509050019150506040516020818303038152906040528051906020012014905092915050565b6060806000600481111561155457fe5b600360070160019054906101000a900460ff16600481111561157257fe5b141561157d57600080fd5b60036006016003600501818054806020026020016040519081016040528092919081815260200182805480156115d257602002820191906000526020600020905b8154815260200190600101908083116115be575b505050505091508080548060200260200160405190810160405280929190818152602001828054801561162457602002820191906000526020600020905b815481526020019060010190808311611610575b50505050509050915091509091565b61163b610ff0565b6116ad576040517f08c379a00000000000000000000000000000000000000000000000000000000081526004018080602001828103825260208152602001807f4f776e61626c653a2063616c6c6572206973206e6f7420746865206f776e657281525060200191505060405180910390fd5b600160038111156116ba57fe5b600360070160009054906101000a900460ff1660038111156116d857fe5b146116e257600080fd5b6002600360070160006101000a81548160ff0219169083600381111561170457fe5b0217905550565b611713610ff0565b611785576040517f08c379a00000000000000000000000000000000000000000000000000000000081526004018080602001828103825260208152602001807f4f776e61626c653a2063616c6c6572206973206e6f7420746865206f776e657281525060200191505060405180910390fd5b6003600481111561179257fe5b600360070160019054906101000a900460ff1660048111156117b057fe5b14806117e45750600260048111156117c457fe5b600360070160019054906101000a900460ff1660048111156117e257fe5b145b611839576040517f08c379a0000000000000000000000000000000000000000000000000000000008152600401808060200182810382526030815260200180611c066030913960400191505060405180910390fd5b6004600360070160016101000a81548160ff0219169083600481111561185b57fe5b0217905550565b61186a610ff0565b6118dc576040517f08c379a00000000000000000000000000000000000000000000000000000000081526004018080602001828103825260208152602001807f4f776e61626c653a2063616c6c6572206973206e6f7420746865206f776e657281525060200191505060405180910390fd5b600160048111156118e957fe5b600360070160019054906101000a900460ff16600481111561190757fe5b1461195d576040517f08c379a0000000000000000000000000000000000000000000000000000000008152600401808060200182810382526021815260200180611c7f6021913960400191505060405180910390fd5b60036005018290806001815401808255809150509060018203906000526020600020016000909192909190915055506003600601819080600181540180825580915050906001820390600052602060002001600090919290919091505550600260009054906101000a900473ffffffffffffffffffffffffffffffffffffffff1673ffffffffffffffffffffffffffffffffffffffff163373ffffffffffffffffffffffffffffffffffffffff167f1e0c997ea568bcfa832f8094688e8b81b68c1c6698d411f651ec7a6e38e20af560405160405180910390a35050565b611a43610ff0565b611ab5576040517f08c379a00000000000000000000000000000000000000000000000000000000081526004018080602001828103825260208152602001807f4f776e61626c653a2063616c6c6572206973206e6f7420746865206f776e657281525060200191505060405180910390fd5b611abe81611ac1565b50565b600073ffffffffffffffffffffffffffffffffffffffff168173ffffffffffffffffffffffffffffffffffffffff161415611b47576040517f08c379a0000000000000000000000000000000000000000000000000000000008152600401808060200182810382526026815260200180611c366026913960400191505060405180910390fd5b8073ffffffffffffffffffffffffffffffffffffffff166000809054906101000a900473ffffffffffffffffffffffffffffffffffffffff1673ffffffffffffffffffffffffffffffffffffffff167f8be0079c531659141344cd1fd0a4f28419497f9722a3daafe3b4186f6b6457e060405160405180910390a3806000806101000a81548173ffffffffffffffffffffffffffffffffffffffff021916908373ffffffffffffffffffffffffffffffffffffffff1602179055505056fe456c207669616a65206465626520646520657374617220656e20726576697369c3b36e206f2066696e616c697a61646f4f776e61626c653a206e6577206f776e657220697320746865207a65726f2061646472657373456c207669616a65206465626520646520657374617220656e20726576697369c3b36e456c207669616a65206e6f20736520656e6375656e74726120656e20637572736f456c207669616a652064656265206465206573746172206e6f20696e69636961646fa265627a7a72315820fb2ed482354609e17f02ab0196edbee7a110699e2237e2a71e8a570b8777459a64736f6c6343000510003260806040523480156200001157600080fd5b506040516200258d3803806200258d83398181016040526101208110156200003857600080fd5b81019080805160405193929190846401000000008211156200005957600080fd5b838201915060208201858111156200007057600080fd5b82518660018202830111640100000000821117156200008e57600080fd5b8083526020830192505050908051906020019080838360005b83811015620000c4578082015181840152602081019050620000a7565b50505050905090810190601f168015620000f25780820380516001836020036101000a031916815260200191505b50604052602001805160405193929190846401000000008211156200011657600080fd5b838201915060208201858111156200012d57600080fd5b82518660018202830111640100000000821117156200014b57600080fd5b8083526020830192505050908051906020019080838360005b838110156200018157808201518184015260208101905062000164565b50505050905090810190601f168015620001af5780820380516001836020036101000a031916815260200191505b50604052602001805190602001909291908051906020019092919080516040519392919084640100000000821115620001e757600080fd5b83820191506020820185811115620001fe57600080fd5b82518660018202830111640100000000821117156200021c57600080fd5b8083526020830192505050908051906020019080838360005b838110156200025257808201518184015260208101905062000235565b50505050905090810190601f168015620002805780820380516001836020036101000a031916815260200191505b50604052602001805190602001909291908051906020019092919080516040519392919084640100000000821115620002b857600080fd5b83820191506020820185811115620002cf57600080fd5b8251866001820283011164010000000082111715620002ed57600080fd5b8083526020830192505050908051906020019080838360005b838110156200032357808201518184015260208101905062000306565b50505050905090810190601f168015620003515780820380516001836020036101000a031916815260200191505b5060405260200180519060200190929190505050336000806101000a81548173ffffffffffffffffffffffffffffffffffffffff021916908373ffffffffffffffffffffffffffffffffffffffff1602179055506000809054906101000a900473ffffffffffffffffffffffffffffffffffffffff1673ffffffffffffffffffffffffffffffffffffffff16600073ffffffffffffffffffffffffffffffffffffffff167f8be0079c531659141344cd1fd0a4f28419497f9722a3daafe3b4186f6b6457e060405160405180910390a330600160006101000a81548173ffffffffffffffffffffffffffffffffffffffff021916908373ffffffffffffffffffffffffffffffffffffffff1602179055506040518061012001604052808a81526020018981526020018881526020018781526020018681526020018581526020018481526020018381526020018281525060026000820151816000019080519060200190620004c2929190620005e1565b506020820151816001019080519060200190620004e1929190620005e1565b506040820151816002015560608201518160030155608082015181600401908051906020019062000514929190620005e1565b5060a0820151816005015560c0820151816006015560e082015181600701908051906020019062000547929190620005e1565b506101008201518160080155905050600160009054906101000a900473ffffffffffffffffffffffffffffffffffffffff1673ffffffffffffffffffffffffffffffffffffffff163373ffffffffffffffffffffffffffffffffffffffff167f208c02ac605140c0ba2c728ef2af9505ae6d3d8b3d34d9f7123127b00d1add3c60405160405180910390a350505050505050505062000690565b828054600181600116156101000203166002900490600052602060002090601f016020900481019282601f106200062457805160ff191683800117855562000655565b8280016001018555821562000655579182015b828111156200065457825182559160200191906001019062000637565b5b50905062000664919062000668565b5090565b6200068d91905b80821115620006895760008160009055506001016200066f565b5090565b90565b611eed80620006a06000396000f3fe608060405234801561001057600080fd5b50600436106100a95760003560e01c80638f32d59b116100715780638f32d59b14610538578063bed34bba1461055a578063c6393d3b146106c4578063df8fb250146108b6578063e39539c414610971578063f2fde38b14610a2c576100a9565b80631bae5a6e146100ae57806341fd5058146102105780636bd680c81461025a578063715018a6146104e45780638da5cb5b146104ee575b600080fd5b6100b6610a70565b60405180806020018060200185815260200180602001848103845288818151815260200191508051906020019080838360005b838110156101045780820151818401526020810190506100e9565b50505050905090810190601f1680156101315780820380516001836020036101000a031916815260200191505b50848103835287818151815260200191508051906020019080838360005b8381101561016a57808201518184015260208101905061014f565b50505050905090810190601f1680156101975780820380516001836020036101000a031916815260200191505b50848103825285818151815260200191508051906020019080838360005b838110156101d05780820151818401526020810190506101b5565b50505050905090810190601f1680156101fd5780820380516001836020036101000a031916815260200191505b5097505050505050505060405180910390f35b610218610d75565b604051808273ffffffffffffffffffffffffffffffffffffffff1673ffffffffffffffffffffffffffffffffffffffff16815260200191505060405180910390f35b6104e2600480360360a081101561027057600080fd5b810190808035906020019064010000000081111561028d57600080fd5b82018360208201111561029f57600080fd5b803590602001918460018302840111640100000000831117156102c157600080fd5b91908080601f016020809104026020016040519081016040528093929190818152602001838380828437600081840152601f19601f8201169050808301925050505050505091929192908035906020019064010000000081111561032457600080fd5b82018360208201111561033657600080fd5b8035906020019184600183028401116401000000008311171561035857600080fd5b91908080601f016020809104026020016040519081016040528093929190818152602001838380828437600081840152601f19601f820116905080830192505050505050509192919290803590602001906401000000008111156103bb57600080fd5b8201836020820111156103cd57600080fd5b803590602001918460018302840111640100000000831117156103ef57600080fd5b91908080601f016020809104026020016040519081016040528093929190818152602001838380828437600081840152601f19601f8201169050808301925050505050505091929192908035906020019064010000000081111561045257600080fd5b82018360208201111561046457600080fd5b8035906020019184600183028401116401000000008311171561048657600080fd5b91908080601f016020809104026020016040519081016040528093929190818152602001838380828437600081840152601f19601f82011690508083019250505050505050919291929080359060200190929190505050610d9b565b005b6104ec611005565b005b6104f661113e565b604051808273ffffffffffffffffffffffffffffffffffffffff1673ffffffffffffffffffffffffffffffffffffffff16815260200191505060405180910390f35b610540611167565b604051808215151515815260200191505060405180910390f35b6106aa6004803603604081101561057057600080fd5b810190808035906020019064010000000081111561058d57600080fd5b82018360208201111561059f57600080fd5b803590602001918460018302840111640100000000831117156105c157600080fd5b91908080601f016020809104026020016040519081016040528093929190818152602001838380828437600081840152601f19601f8201169050808301925050505050505091929192908035906020019064010000000081111561062457600080fd5b82018360208201111561063657600080fd5b8035906020019184600183028401116401000000008311171561065857600080fd5b91908080601f016020809104026020016040519081016040528093929190818152602001838380828437600081840152601f19601f8201169050808301925050505050505091929192905050506111be565b604051808215151515815260200191505060405180910390f35b6106f0600480360360208110156106da57600080fd5b81019080803590602001909291905050506112ad565b604051808060200180602001806020018060200186815260200185810385528a818151815260200191508051906020019080838360005b83811015610742578082015181840152602081019050610727565b50505050905090810190601f16801561076f5780820380516001836020036101000a031916815260200191505b50858103845289818151815260200191508051906020019080838360005b838110156107a857808201518184015260208101905061078d565b50505050905090810190601f1680156107d55780820380516001836020036101000a031916815260200191505b50858103835288818151815260200191508051906020019080838360005b8381101561080e5780820151818401526020810190506107f3565b50505050905090810190601f16801561083b5780820380516001836020036101000a031916815260200191505b50858103825287818151815260200191508051906020019080838360005b83811015610874578082015181840152602081019050610859565b50505050905090810190601f1680156108a15780820380516001836020036101000a031916815260200191505b50995050505050505050505060405180910390f35b61096f600480360360208110156108cc57600080fd5b81019080803590602001906401000000008111156108e957600080fd5b8201836020820111156108fb57600080fd5b8035906020019184600183028401116401000000008311171561091d57600080fd5b91908080601f016020809104026020016040519081016040528093929190818152602001838380828437600081840152601f19601f820116905080830192505050505050509192919290505050611550565b005b610a2a6004803603602081101561098757600080fd5b81019080803590602001906401000000008111156109a457600080fd5b8201836020820111156109b657600080fd5b803590602001918460018302840111640100000000831117156109d857600080fd5b91908080601f016020809104026020016040519081016040528093929190818152602001838380828437600081840152601f19601f8201169050808301925050505050505091929192905050506115e7565b005b610a6e60048036036020811015610a4257600080fd5b81019080803573ffffffffffffffffffffffffffffffffffffffff1690602001909291905050506119c0565b005b60608060006060610a7f611b8a565b600260405180610120016040529081600082018054600181600116156101000203166002900480601f016020809104026020016040519081016040528092919081815260200182805460018160011615610100020316600290048015610b265780601f10610afb57610100808354040283529160200191610b26565b820191906000526020600020905b815481529060010190602001808311610b0957829003601f168201915b50505050508152602001600182018054600181600116156101000203166002900480601f016020809104026020016040519081016040528092919081815260200182805460018160011615610100020316600290048015610bc85780601f10610b9d57610100808354040283529160200191610bc8565b820191906000526020600020905b815481529060010190602001808311610bab57829003601f168201915b505050505081526020016002820154815260200160038201548152602001600482018054600181600116156101000203166002900480601f016020809104026020016040519081016040528092919081815260200182805460018160011615610100020316600290048015610c7e5780601f10610c5357610100808354040283529160200191610c7e565b820191906000526020600020905b815481529060010190602001808311610c6157829003601f168201915b505050505081526020016005820154815260200160068201548152602001600782018054600181600116156101000203166002900480601f016020809104026020016040519081016040528092919081815260200182805460018160011615610100020316600290048015610d345780601f10610d0957610100808354040283529160200191610d34565b820191906000526020600020905b815481529060010190602001808311610d1757829003601f168201915b505050505081526020016008820154815250509050806000015181602001518260c001518360e0015183935082925080905094509450945094505090919293565b600160009054906101000a900473ffffffffffffffffffffffffffffffffffffffff1681565b610da3611167565b610e15576040517f08c379a00000000000000000000000000000000000000000000000000000000081526004018080602001828103825260208152602001807f4f776e61626c653a2063616c6c6572206973206e6f7420746865206f776e657281525060200191505060405180910390fd5b600c856040518082805190602001908083835b60208310610e4b5780518252602082019150602081019050602083039250610e28565b6001836020036101000a038019825116818451168082178552505050505050905001915050908152602001604051809103902060009054906101000a900460ff1615610e9657600080fd5b610e9e611bd6565b85816000018190525084816020018190525083816040018190525082816060018190525081816080018181525050600b81908060018154018082558091505090600182039060005260206000209060050201600090919290919091506000820151816000019080519060200190610f16929190611c05565b506020820151816001019080519060200190610f33929190611c05565b506040820151816002019080519060200190610f50929190611c05565b506060820151816003019080519060200190610f6d929190611c05565b50608082015181600401555050506001600c876040518082805190602001908083835b60208310610fb35780518252602082019150602081019050602083039250610f90565b6001836020036101000a038019825116818451168082178552505050505050905001915050908152602001604051809103902060006101000a81548160ff021916908315150217905550505050505050565b61100d611167565b61107f576040517f08c379a00000000000000000000000000000000000000000000000000000000081526004018080602001828103825260208152602001807f4f776e61626c653a2063616c6c6572206973206e6f7420746865206f776e657281525060200191505060405180910390fd5b600073ffffffffffffffffffffffffffffffffffffffff166000809054906101000a900473ffffffffffffffffffffffffffffffffffffffff1673ffffffffffffffffffffffffffffffffffffffff167f8be0079c531659141344cd1fd0a4f28419497f9722a3daafe3b4186f6b6457e060405160405180910390a360008060006101000a81548173ffffffffffffffffffffffffffffffffffffffff021916908373ffffffffffffffffffffffffffffffffffffffff160217905550565b60008060009054906101000a900473ffffffffffffffffffffffffffffffffffffffff16905090565b60008060009054906101000a900473ffffffffffffffffffffffffffffffffffffffff1673ffffffffffffffffffffffffffffffffffffffff163373ffffffffffffffffffffffffffffffffffffffff1614905090565b6000816040516020018082805190602001908083835b602083106111f757805182526020820191506020810190506020830392506111d4565b6001836020036101000a03801982511681845116808217855250505050505090500191505060405160208183030381529060405280519060200120836040516020018082805190602001908083835b602083106112695780518252602082019150602081019050602083039250611246565b6001836020036101000a0380198251168184511680821785525050505050509050019150506040516020818303038152906040528051906020012014905092915050565b600b81815481106112ba57fe5b9060005260206000209060050201600091509050806000018054600181600116156101000203166002900480601f0160208091040260200160405190810160405280929190818152602001828054600181600116156101000203166002900480156113665780601f1061133b57610100808354040283529160200191611366565b820191906000526020600020905b81548152906001019060200180831161134957829003601f168201915b505050505090806001018054600181600116156101000203166002900480601f0160208091040260200160405190810160405280929190818152602001828054600181600116156101000203166002900480156114045780601f106113d957610100808354040283529160200191611404565b820191906000526020600020905b8154815290600101906020018083116113e757829003601f168201915b505050505090806002018054600181600116156101000203166002900480601f0160208091040260200160405190810160405280929190818152602001828054600181600116156101000203166002900480156114a25780601f10611477576101008083540402835291602001916114a2565b820191906000526020600020905b81548152906001019060200180831161148557829003601f168201915b505050505090806003018054600181600116156101000203166002900480601f0160208091040260200160405190810160405280929190818152602001828054600181600116156101000203166002900480156115405780601f1061151557610100808354040283529160200191611540565b820191906000526020600020905b81548152906001019060200180831161152357829003601f168201915b5050505050908060040154905085565b611558611167565b6115ca576040517f08c379a00000000000000000000000000000000000000000000000000000000081526004018080602001828103825260208152602001807f4f776e61626c653a2063616c6c6572206973206e6f7420746865206f776e657281525060200191505060405180910390fd5b80600260070190805190602001906115e3929190611c85565b5050565b6115ef611167565b611661576040517f08c379a00000000000000000000000000000000000000000000000000000000081526004018080602001828103825260208152602001807f4f776e61626c653a2063616c6c6572206973206e6f7420746865206f776e657281525060200191505060405180910390fd5b600c816040518082805190602001908083835b602083106116975780518252602082019150602081019050602083039250611674565b6001836020036101000a038019825116818451168082178552505050505050905001915050908152602001604051809103902060009054906101000a900460ff166116e157600080fd5b60008090505b600b805490508110156119bc576117b4600b828154811061170457fe5b90600052602060002090600502016000018054600181600116156101000203166002900480601f0160208091040260200160405190810160405280929190818152602001828054600181600116156101000203166002900480156117a95780601f1061177e576101008083540402835291602001916117a9565b820191906000526020600020905b81548152906001019060200180831161178c57829003601f168201915b5050505050836111be565b156119af57600b6001600b8054905003815481106117ce57fe5b9060005260206000209060050201600b82815481106117e957fe5b90600052602060002090600502016000820181600001908054600181600116156101000203166002900461181e929190611d05565b5060018201816001019080546001816001161561010002031660029004611846929190611d05565b506002820181600201908054600181600116156101000203166002900461186e929190611d05565b5060038201816003019080546001816001161561010002031660029004611896929190611d05565b5060048201548160040155905050600b6001600b8054905003815481106118b957fe5b9060005260206000209060050201600080820160006118d89190611d8c565b6001820160006118e89190611d8c565b6002820160006118f89190611d8c565b6003820160006119089190611d8c565b60048201600090555050600b8054809190600190036119279190611dd4565b506000600c836040518082805190602001908083835b60208310611960578051825260208201915060208101905060208303925061193d565b6001836020036101000a038019825116818451168082178552505050505050905001915050908152602001604051809103902060006101000a81548160ff0219169083151502179055506119bc565b80806001019150506116e7565b5050565b6119c8611167565b611a3a576040517f08c379a00000000000000000000000000000000000000000000000000000000081526004018080602001828103825260208152602001807f4f776e61626c653a2063616c6c6572206973206e6f7420746865206f776e657281525060200191505060405180910390fd5b611a4381611a46565b50565b600073ffffffffffffffffffffffffffffffffffffffff168173ffffffffffffffffffffffffffffffffffffffff161415611acc576040517f08c379a0000000000000000000000000000000000000000000000000000000008152600401808060200182810382526026815260200180611e936026913960400191505060405180910390fd5b8073ffffffffffffffffffffffffffffffffffffffff166000809054906101000a900473ffffffffffffffffffffffffffffffffffffffff1673ffffffffffffffffffffffffffffffffffffffff167f8be0079c531659141344cd1fd0a4f28419497f9722a3daafe3b4186f6b6457e060405160405180910390a3806000806101000a81548173ffffffffffffffffffffffffffffffffffffffff021916908373ffffffffffffffffffffffffffffffffffffffff16021790555050565b6040518061012001604052806060815260200160608152602001600081526020016000815260200160608152602001600081526020016000815260200160608152602001600081525090565b6040518060a0016040528060608152602001606081526020016060815260200160608152602001600081525090565b828054600181600116156101000203166002900490600052602060002090601f016020900481019282601f10611c4657805160ff1916838001178555611c74565b82800160010185558215611c74579182015b82811115611c73578251825591602001919060010190611c58565b5b509050611c819190611e06565b5090565b828054600181600116156101000203166002900490600052602060002090601f016020900481019282601f10611cc657805160ff1916838001178555611cf4565b82800160010185558215611cf4579182015b82811115611cf3578251825591602001919060010190611cd8565b5b509050611d019190611e06565b5090565b828054600181600116156101000203166002900490600052602060002090601f016020900481019282601f10611d3e5780548555611d7b565b82800160010185558215611d7b57600052602060002091601f016020900482015b82811115611d7a578254825591600101919060010190611d5f565b5b509050611d889190611e06565b5090565b50805460018160011615610100020316600290046000825580601f10611db25750611dd1565b601f016020900490600052602060002090810190611dd09190611e06565b5b50565b815481835581811115611e0157600502816005028360005260206000209182019101611e009190611e2b565b5b505050565b611e2891905b80821115611e24576000816000905550600101611e0c565b5090565b90565b611e8f91905b80821115611e8b5760008082016000611e4a9190611d8c565b600182016000611e5a9190611d8c565b600282016000611e6a9190611d8c565b600382016000611e7a9190611d8c565b600482016000905550600501611e31565b5090565b9056fe4f776e61626c653a206e6577206f776e657220697320746865207a65726f2061646472657373a265627a7a72315820408418c99e2a6420751703b8e70acafa9f88d8d6f8985452c4faeacbdb19bd2064736f6c634300051000324e6f20657320656c2070726f706965746172696f2064656c20636f6e747261746f4e6f207469656e65207065726d69736f73207061726120637265617220656c207669616a65206f20646972656363696f6e20646520626172636f20696e76616c696461a265627a7a723158203826f47fbe8943c7339097c54f26f6ef9f53ed6d123479a14d35d4a2a115855464736f6c63430005100032608060405234801561001057600080fd5b50336000806101000a81548173ffffffffffffffffffffffffffffffffffffffff021916908373ffffffffffffffffffffffffffffffffffffffff1602179055506000809054906101000a900473ffffffffffffffffffffffffffffffffffffffff1673ffffffffffffffffffffffffffffffffffffffff16600073ffffffffffffffffffffffffffffffffffffffff167f8be0079c531659141344cd1fd0a4f28419497f9722a3daafe3b4186f6b6457e060405160405180910390a333600360006101000a81548173ffffffffffffffffffffffffffffffffffffffff021916908373ffffffffffffffffffffffffffffffffffffffff1602179055506113e08061011d6000396000f3fe6080604052600436106100c25760003560e01c80638da5cb5b1161007f578063bfefead611610059578063bfefead614610473578063d4b37df7146104c4578063f2fde38b14610530578063fa9e0f6514610581576100c2565b80638da5cb5b146103725780638f32d59b146103c9578063bd125994146103f8576100c2565b80630a78c9791461013a5780633cb4e1b4146101a65780635242f1a0146102215780635c956fb9146102bf5780636b3e3e41146102ea578063715018a61461035b575b60003414610138576040517f08c379a000000000000000000000000000000000000000000000000000000000815260040180806020018281038252601d8152602001807f4573746520636f6e747261746f206e6f2061636570746120457468657200000081525060200191505060405180910390fd5b005b34801561014657600080fd5b5061014f610647565b6040518080602001828103825283818151815260200191508051906020019060200280838360005b83811015610192578082015181840152602081019050610177565b505050509050019250505060405180910390f35b3480156101b257600080fd5b506101df600480360360208110156101c957600080fd5b8101908080359060200190929190505050610798565b604051808273ffffffffffffffffffffffffffffffffffffffff1673ffffffffffffffffffffffffffffffffffffffff16815260200191505060405180910390f35b34801561022d57600080fd5b506102a56004803603602081101561024457600080fd5b810190808035906020019064010000000081111561026157600080fd5b82018360208201111561027357600080fd5b8035906020019184600183028401116401000000008311171561029557600080fd5b90919293919293905050506107d4565b604051808215151515815260200191505060405180910390f35b3480156102cb57600080fd5b506102d4610865565b6040518082815260200191505060405180910390f35b3480156102f657600080fd5b506103596004803603604081101561030d57600080fd5b81019080803573ffffffffffffffffffffffffffffffffffffffff169060200190929190803573ffffffffffffffffffffffffffffffffffffffff169060200190929190505050610880565b005b34801561036757600080fd5b50610370610a2b565b005b34801561037e57600080fd5b50610387610b64565b604051808273ffffffffffffffffffffffffffffffffffffffff1673ffffffffffffffffffffffffffffffffffffffff16815260200191505060405180910390f35b3480156103d557600080fd5b506103de610b8d565b604051808215151515815260200191505060405180910390f35b34801561040457600080fd5b506104316004803603602081101561041b57600080fd5b8101908080359060200190929190505050610be4565b604051808273ffffffffffffffffffffffffffffffffffffffff1673ffffffffffffffffffffffffffffffffffffffff16815260200191505060405180910390f35b34801561047f57600080fd5b506104c26004803603602081101561049657600080fd5b81019080803573ffffffffffffffffffffffffffffffffffffffff169060200190929190505050610c20565b005b3480156104d057600080fd5b506104d9610cef565b6040518080602001828103825283818151815260200191508051906020019060200280838360005b8381101561051c578082015181840152602081019050610501565b505050509050019250505060405180910390f35b34801561053c57600080fd5b5061057f6004803603602081101561055357600080fd5b81019080803573ffffffffffffffffffffffffffffffffffffffff169060200190929190505050610e40565b005b34801561058d57600080fd5b50610645600480360360608110156105a457600080fd5b81019080803573ffffffffffffffffffffffffffffffffffffffff169060200190929190803573ffffffffffffffffffffffffffffffffffffffff1690602001909291908035906020019064010000000081111561060157600080fd5b82018360208201111561061357600080fd5b8035906020019184600183028401116401000000008311171561063557600080fd5b9091929391929390505050610ec6565b005b6060600360009054906101000a900473ffffffffffffffffffffffffffffffffffffffff1673ffffffffffffffffffffffffffffffffffffffff163373ffffffffffffffffffffffffffffffffffffffff161461070c576040517f08c379a00000000000000000000000000000000000000000000000000000000081526004018080602001828103825260198152602001807f4f6e6c79206c61737420666163746f72792076657273696f6e0000000000000081525060200191505060405180910390fd5b600180548060200260200160405190810160405280929190818152602001828054801561078e57602002820191906000526020600020905b8160009054906101000a900473ffffffffffffffffffffffffffffffffffffffff1673ffffffffffffffffffffffffffffffffffffffff1681526020019060010190808311610744575b5050505050905090565b600281815481106107a557fe5b906000526020600020016000915054906101000a900473ffffffffffffffffffffffffffffffffffffffff1681565b60008073ffffffffffffffffffffffffffffffffffffffff1660068484604051808383808284378083019250505092505050908152602001604051809103902060009054906101000a900473ffffffffffffffffffffffffffffffffffffffff1673ffffffffffffffffffffffffffffffffffffffff16141561085a576000905061085f565b600190505b92915050565b60006001600760008282540192505081905550600754905090565b600360009054906101000a900473ffffffffffffffffffffffffffffffffffffffff1673ffffffffffffffffffffffffffffffffffffffff163373ffffffffffffffffffffffffffffffffffffffff1614610943576040517f08c379a00000000000000000000000000000000000000000000000000000000081526004018080602001828103825260198152602001807f4f6e6c79206c61737420666163746f72792076657273696f6e0000000000000081525060200191505060405180910390fd5b60018290806001815401808255809150509060018203906000526020600020016000909192909190916101000a81548173ffffffffffffffffffffffffffffffffffffffff021916908373ffffffffffffffffffffffffffffffffffffffff1602179055505080600460008473ffffffffffffffffffffffffffffffffffffffff1673ffffffffffffffffffffffffffffffffffffffff16815260200190815260200160002060006101000a81548173ffffffffffffffffffffffffffffffffffffffff021916908373ffffffffffffffffffffffffffffffffffffffff1602179055505050565b610a33610b8d565b610aa5576040517f08c379a00000000000000000000000000000000000000000000000000000000081526004018080602001828103825260208152602001807f4f776e61626c653a2063616c6c6572206973206e6f7420746865206f776e657281525060200191505060405180910390fd5b600073ffffffffffffffffffffffffffffffffffffffff166000809054906101000a900473ffffffffffffffffffffffffffffffffffffffff1673ffffffffffffffffffffffffffffffffffffffff167f8be0079c531659141344cd1fd0a4f28419497f9722a3daafe3b4186f6b6457e060405160405180910390a360008060006101000a81548173ffffffffffffffffffffffffffffffffffffffff021916908373ffffffffffffffffffffffffffffffffffffffff160217905550565b60008060009054906101000a900473ffffffffffffffffffffffffffffffffffffffff16905090565b60008060009054906101000a900473ffffffffffffffffffffffffffffffffffffffff1673ffffffffffffffffffffffffffffffffffffffff163373ffffffffffffffffffffffffffffffffffffffff1614905090565b60018181548110610bf157fe5b906000526020600020016000915054906101000a900473ffffffffffffffffffffffffffffffffffffffff1681565b600360009054906101000a900473ffffffffffffffffffffffffffffffffffffffff1673ffffffffffffffffffffffffffffffffffffffff163373ffffffffffffffffffffffffffffffffffffffff1614610ce3576040517f08c379a00000000000000000000000000000000000000000000000000000000081526004018080602001828103825260198152602001807f4f6e6c79206c61737420666163746f72792076657273696f6e0000000000000081525060200191505060405180910390fd5b610cec816110d9565b50565b6060600360009054906101000a900473ffffffffffffffffffffffffffffffffffffffff1673ffffffffffffffffffffffffffffffffffffffff163373ffffffffffffffffffffffffffffffffffffffff1614610db4576040517f08c379a00000000000000000000000000000000000000000000000000000000081526004018080602001828103825260198152602001807f4f6e6c79206c61737420666163746f72792076657273696f6e0000000000000081525060200191505060405180910390fd5b6002805480602002602001604051908101604052809291908181526020018280548015610e3657602002820191906000526020600020905b8160009054906101000a900473ffffffffffffffffffffffffffffffffffffffff1673ffffffffffffffffffffffffffffffffffffffff1681526020019060010190808311610dec575b5050505050905090565b610e48610b8d565b610eba576040517f08c379a00000000000000000000000000000000000000000000000000000000081526004018080602001828103825260208152602001807f4f776e61626c653a2063616c6c6572206973206e6f7420746865206f776e657281525060200191505060405180910390fd5b610ec381611241565b50565b600360009054906101000a900473ffffffffffffffffffffffffffffffffffffffff1673ffffffffffffffffffffffffffffffffffffffff163373ffffffffffffffffffffffffffffffffffffffff1614610f89576040517f08c379a00000000000000000000000000000000000000000000000000000000081526004018080602001828103825260198152602001807f4f6e6c79206c61737420666163746f72792076657273696f6e0000000000000081525060200191505060405180910390fd5b60028490806001815401808255809150509060018203906000526020600020016000909192909190916101000a81548173ffffffffffffffffffffffffffffffffffffffff021916908373ffffffffffffffffffffffffffffffffffffffff1602179055505082600560008673ffffffffffffffffffffffffffffffffffffffff1673ffffffffffffffffffffffffffffffffffffffff16815260200190815260200160002060006101000a81548173ffffffffffffffffffffffffffffffffffffffff021916908373ffffffffffffffffffffffffffffffffffffffff1602179055508360068383604051808383808284378083019250505092505050908152602001604051809103902060006101000a81548173ffffffffffffffffffffffffffffffffffffffff021916908373ffffffffffffffffffffffffffffffffffffffff16021790555050505050565b600073ffffffffffffffffffffffffffffffffffffffff16600360009054906101000a900473ffffffffffffffffffffffffffffffffffffffff1673ffffffffffffffffffffffffffffffffffffffff161415611181576040517f08c379a00000000000000000000000000000000000000000000000000000000081526004018080602001828103825260268152602001806113866026913960400191505060405180910390fd5b8073ffffffffffffffffffffffffffffffffffffffff16600360009054906101000a900473ffffffffffffffffffffffffffffffffffffffff1673ffffffffffffffffffffffffffffffffffffffff167f93b72544abd70303db982ccf813634dcd3ada25ae1744a04bd1fd0a3b4c83f9060405160405180910390a380600360006101000a81548173ffffffffffffffffffffffffffffffffffffffff021916908373ffffffffffffffffffffffffffffffffffffffff16021790555050565b600073ffffffffffffffffffffffffffffffffffffffff168173ffffffffffffffffffffffffffffffffffffffff1614156112c7576040517f08c379a00000000000000000000000000000000000000000000000000000000081526004018080602001828103825260268152602001806113866026913960400191505060405180910390fd5b8073ffffffffffffffffffffffffffffffffffffffff166000809054906101000a900473ffffffffffffffffffffffffffffffffffffffff1673ffffffffffffffffffffffffffffffffffffffff167f8be0079c531659141344cd1fd0a4f28419497f9722a3daafe3b4186f6b6457e060405160405180910390a3806000806101000a81548173ffffffffffffffffffffffffffffffffffffffff021916908373ffffffffffffffffffffffffffffffffffffffff1602179055505056fe4f776e61626c653a206e6577206f776e657220697320746865207a65726f2061646472657373a265627a7a72315820ce5f96a16a416f93effda0da6e0ce3c3634a5283f6d61b7f45f269caac8c54fd64736f6c63430005100032",
  "source": "pragma solidity ^0.5.11;\n\nimport './Barco.sol';\nimport './Viaje.sol';\nimport './FactoriaStorage.sol';\nimport './Libraries/Ownable.sol';\n\ncontract FactoriaViaje {\n   FactoriaStorage public factoriaStorage;\n   address owner;\n   event NewBarco(address indexed _owner, address _barco);\n   event NewViaje(address indexed _owner, address _barco, address _vaije);\n   \n   constructor() public{\n      factoriaStorage = new FactoriaStorage();\n      owner = msg.sender;\n   }\n   \n   \n   modifier onlyOwner(){\n       require(owner == msg.sender,'No es el propietario del contrato');\n       _;\n   }\n   \n   function newOwner(address _newOwner) onlyOwner public{\n       owner = _newOwner;\n   }\n   \n   // Crear un nuevo Barco\n   function createBarco(string memory _IMO, string memory _tipoEmbarcacion, uint _eslora, uint _manga, \n    string memory _motor, uint _fechaBotadura, uint _numLicencia, string memory _puerto, uint _capacidadCarga) public{\n        Barco newBarco = new Barco(_IMO, _tipoEmbarcacion, _eslora, _manga, _motor, _fechaBotadura, \n                                    _numLicencia, _puerto, _capacidadCarga);\n        newBarco.transferOwnership(msg.sender);\n        factoriaStorage.addBarco(address(newBarco), msg.sender, _IMO);\n        emit NewBarco(msg.sender, address(newBarco));\n   }\n\n    // Crear un nuevo viaje y aadir la direccin\n    function createTravel(uint _ID, string memory _empresa, string memory _puertoIni, string memory _proposito, address _barcoDir) public{\n        require(Barco(_barcoDir).owner() == msg.sender,'No tiene permisos para crear el viaje o direccion de barco invalida');\n        Viaje newViaje = new Viaje(_ID,_empresa,_puertoIni , _proposito, _barcoDir);\n        newViaje.transferOwnership(msg.sender);\n        factoriaStorage.addViaje(address(newViaje), msg.sender);\n        emit NewViaje(msg.sender, _barcoDir, address(newViaje));\n    }\n\n    // Devuelve una lista de las direcciones de los barcos\n    function getBarcos() public view returns (address[] memory){\n        return factoriaStorage.getBarcos();\n    }\n    \n    // Devuelve una lista de las direcciones de los viajes\n    function getViajes() public view returns (address[] memory){\n        return factoriaStorage.getViajes();\n    }\n    \n    function changeFactoryVersion(address newFactory) onlyOwner public {\n        FactoriaStorage fs = FactoriaStorage(factoriaStorage);\n        fs.changeFactoryVersion(newFactory);\n    }\n\n}\n",
  "sourcePath": "/home/hyperledger/tfm-puertos/tfm-puertos-contracts/contracts/FactoriaViaje.sol",
  "compiler": {
    "name": "solc",
    "version": "0.5.16+commit.9c3226ce.Emscripten.clang"
  },
  "schemaVersion": "3.2.4",
  "updatedAt": "2020-09-13T11:35:47.673Z",
  "networkType": "ethereum",
  "devdoc": {
    "methods": {}
  },
  "userdoc": {
    "methods": {}
  }
}