{
  "contractName": "Viaje",
  "abi": [
    {
      "inputs": [
        {
          "internalType": "uint256",
          "name": "_ID",
          "type": "uint256"
        },
        {
          "internalType": "string",
          "name": "_empresa",
          "type": "string"
        },
        {
          "internalType": "string",
          "name": "_puertoIni",
          "type": "string"
        },
        {
          "internalType": "string",
          "name": "_proposito",
          "type": "string"
        },
        {
          "internalType": "address",
          "name": "_barcoDir",
          "type": "address"
        }
      ],
      "payable": false,
      "stateMutability": "nonpayable",
      "type": "constructor"
    },
    {
      "anonymous": false,
      "inputs": [
        {
          "indexed": true,
          "internalType": "address",
          "name": "previousOwner",
          "type": "address"
        },
        {
          "indexed": true,
          "internalType": "address",
          "name": "newOwner",
          "type": "address"
        }
      ],
      "name": "OwnershipTransferred",
      "type": "event"
    },
    {
      "anonymous": false,
      "inputs": [
        {
          "indexed": true,
          "internalType": "address",
          "name": "owner",
          "type": "address"
        },
        {
          "indexed": true,
          "internalType": "address",
          "name": "viajeDir",
          "type": "address"
        }
      ],
      "name": "dataUploaded",
      "type": "event"
    },
    {
      "anonymous": false,
      "inputs": [
        {
          "indexed": true,
          "internalType": "address",
          "name": "owner",
          "type": "address"
        },
        {
          "indexed": true,
          "internalType": "address",
          "name": "viajeDir",
          "type": "address"
        }
      ],
      "name": "travelCreated",
      "type": "event"
    },
    {
      "constant": true,
      "inputs": [],
      "name": "barcoDir",
      "outputs": [
        {
          "internalType": "address",
          "name": "",
          "type": "address"
        }
      ],
      "payable": false,
      "stateMutability": "view",
      "type": "function"
    },
    {
      "constant": true,
      "inputs": [],
      "name": "isOwner",
      "outputs": [
        {
          "internalType": "bool",
          "name": "",
          "type": "bool"
        }
      ],
      "payable": false,
      "stateMutability": "view",
      "type": "function"
    },
    {
      "constant": true,
      "inputs": [],
      "name": "owner",
      "outputs": [
        {
          "internalType": "address",
          "name": "",
          "type": "address"
        }
      ],
      "payable": false,
      "stateMutability": "view",
      "type": "function"
    },
    {
      "constant": false,
      "inputs": [],
      "name": "renounceOwnership",
      "outputs": [],
      "payable": false,
      "stateMutability": "nonpayable",
      "type": "function"
    },
    {
      "constant": false,
      "inputs": [
        {
          "internalType": "address",
          "name": "newOwner",
          "type": "address"
        }
      ],
      "name": "transferOwnership",
      "outputs": [],
      "payable": false,
      "stateMutability": "nonpayable",
      "type": "function"
    },
    {
      "constant": true,
      "inputs": [],
      "name": "viajeDir",
      "outputs": [
        {
          "internalType": "address",
          "name": "",
          "type": "address"
        }
      ],
      "payable": false,
      "stateMutability": "view",
      "type": "function"
    },
    {
      "constant": false,
      "inputs": [
        {
          "internalType": "bytes32",
          "name": "_localizacion",
          "type": "bytes32"
        },
        {
          "internalType": "uint256",
          "name": "_timeLocalizacion",
          "type": "uint256"
        }
      ],
      "name": "uploadData",
      "outputs": [],
      "payable": false,
      "stateMutability": "nonpayable",
      "type": "function"
    },
    {
      "constant": true,
      "inputs": [],
      "name": "getViaje",
      "outputs": [
        {
          "internalType": "uint256",
          "name": "_ID",
          "type": "uint256"
        },
        {
          "internalType": "string",
          "name": "_puertoIni",
          "type": "string"
        },
        {
          "internalType": "string",
          "name": "_proposito",
          "type": "string"
        },
        {
          "internalType": "string",
          "name": "_estadoViaje",
          "type": "string"
        },
        {
          "internalType": "string",
          "name": "estadoBarco",
          "type": "string"
        }
      ],
      "payable": false,
      "stateMutability": "view",
      "type": "function"
    },
    {
      "constant": true,
      "inputs": [],
      "name": "getRoute",
      "outputs": [
        {
          "internalType": "uint256[]",
          "name": "_timeLocalizacion",
          "type": "uint256[]"
        },
        {
          "internalType": "bytes32[]",
          "name": "_localizacion",
          "type": "bytes32[]"
        }
      ],
      "payable": false,
      "stateMutability": "view",
      "type": "function"
    },
    {
      "constant": true,
      "inputs": [],
      "name": "getLocalization",
      "outputs": [
        {
          "internalType": "bytes32",
          "name": "_localizacion",
          "type": "bytes32"
        }
      ],
      "payable": false,
      "stateMutability": "view",
      "type": "function"
    },
    {
      "constant": false,
      "inputs": [],
      "name": "startTravel",
      "outputs": [],
      "payable": false,
      "stateMutability": "nonpayable",
      "type": "function"
    },
    {
      "constant": true,
      "inputs": [],
      "name": "getStatusViaje",
      "outputs": [
        {
          "internalType": "string",
          "name": "_estadoViaje",
          "type": "string"
        }
      ],
      "payable": false,
      "stateMutability": "view",
      "type": "function"
    },
    {
      "constant": true,
      "inputs": [],
      "name": "getStatusBarco",
      "outputs": [
        {
          "internalType": "string",
          "name": "_estadoBarco",
          "type": "string"
        }
      ],
      "payable": false,
      "stateMutability": "view",
      "type": "function"
    },
    {
      "constant": false,
      "inputs": [],
      "name": "reviewTravel",
      "outputs": [],
      "payable": false,
      "stateMutability": "nonpayable",
      "type": "function"
    },
    {
      "constant": false,
      "inputs": [],
      "name": "endTravel",
      "outputs": [],
      "payable": false,
      "stateMutability": "nonpayable",
      "type": "function"
    },
    {
      "constant": false,
      "inputs": [],
      "name": "novalidTravel",
      "outputs": [],
      "payable": false,
      "stateMutability": "nonpayable",
      "type": "function"
    },
    {
      "constant": false,
      "inputs": [],
      "name": "fishBoat",
      "outputs": [],
      "payable": false,
      "stateMutability": "nonpayable",
      "type": "function"
    },
    {
      "constant": false,
      "inputs": [],
      "name": "backBoat",
      "outputs": [],
      "payable": false,
      "stateMutability": "nonpayable",
      "type": "function"
    },
    {
      "constant": true,
      "inputs": [
        {
          "internalType": "string",
          "name": "a",
          "type": "string"
        },
        {
          "internalType": "string",
          "name": "b",
          "type": "string"
        }
      ],
      "name": "compareStrings",
      "outputs": [
        {
          "internalType": "bool",
          "name": "",
          "type": "bool"
        }
      ],
      "payable": false,
      "stateMutability": "pure",
      "type": "function"
    }
  ],
  "bytecode": "0x60806040523480156200001157600080fd5b506040516200230138038062002301833981810160405260a08110156200003757600080fd5b8101908080519060200190929190805160405193929190846401000000008211156200006257600080fd5b838201915060208201858111156200007957600080fd5b82518660018202830111640100000000821117156200009757600080fd5b8083526020830192505050908051906020019080838360005b83811015620000cd578082015181840152602081019050620000b0565b50505050905090810190601f168015620000fb5780820380516001836020036101000a031916815260200191505b50604052602001805160405193929190846401000000008211156200011f57600080fd5b838201915060208201858111156200013657600080fd5b82518660018202830111640100000000821117156200015457600080fd5b8083526020830192505050908051906020019080838360005b838110156200018a5780820151818401526020810190506200016d565b50505050905090810190601f168015620001b85780820380516001836020036101000a031916815260200191505b5060405260200180516040519392919084640100000000821115620001dc57600080fd5b83820191506020820185811115620001f357600080fd5b82518660018202830111640100000000821117156200021157600080fd5b8083526020830192505050908051906020019080838360005b83811015620002475780820151818401526020810190506200022a565b50505050905090810190601f168015620002755780820380516001836020036101000a031916815260200191505b5060405260200180519060200190929190505050336000806101000a81548173ffffffffffffffffffffffffffffffffffffffff021916908373ffffffffffffffffffffffffffffffffffffffff1602179055506000809054906101000a900473ffffffffffffffffffffffffffffffffffffffff1673ffffffffffffffffffffffffffffffffffffffff16600073ffffffffffffffffffffffffffffffffffffffff167f8be0079c531659141344cd1fd0a4f28419497f9722a3daafe3b4186f6b6457e060405160405180910390a330600260006101000a81548173ffffffffffffffffffffffffffffffffffffffff021916908373ffffffffffffffffffffffffffffffffffffffff16021790555080600160006101000a81548173ffffffffffffffffffffffffffffffffffffffff021916908373ffffffffffffffffffffffffffffffffffffffff160217905550846003600001819055508360036001019080519060200190620003ec9291906200054c565b508260036002019080519060200190620004089291906200054c565b506040518060400160405280600481526020017f4e6f6e6500000000000000000000000000000000000000000000000000000000815250600380019080519060200190620004589291906200054c565b508160036004019080519060200190620004749291906200054c565b506000600360070160006101000a81548160ff021916908360038111156200049857fe5b02179055506000600360070160016101000a81548160ff02191690836004811115620004c057fe5b0217905550600260009054906101000a900473ffffffffffffffffffffffffffffffffffffffff1673ffffffffffffffffffffffffffffffffffffffff163373ffffffffffffffffffffffffffffffffffffffff167f1b908132b647fdcf977587ebd802d70ada3639d8ed216da079ce1b8351c3914160405160405180910390a35050505050620005fb565b828054600181600116156101000203166002900490600052602060002090601f016020900481019282601f106200058f57805160ff1916838001178555620005c0565b82800160010185558215620005c0579182015b82811115620005bf578251825591602001919060010190620005a2565b5b509050620005cf9190620005d3565b5090565b620005f891905b80821115620005f4576000816000905550600101620005da565b5090565b90565b611cf6806200060b6000396000f3fe608060405234801561001057600080fd5b50600436106101215760003560e01c80638f32d59b116100ad578063c5eaa12911610071578063c5eaa129146106b4578063d47c10dd1461075b578063e0b4a25014610765578063e546ebd71461076f578063f2fde38b146107a757610121565b80638f32d59b146103d85780639a6f108e146103fa5780639afd6cb31461047d578063afaf814f146104c7578063bed34bba1461054a57610121565b806375decf59116100f457806375decf591461018e5780637b63b1de146101985780637debdde914610366578063896dd58a146103845780638da5cb5b1461038e57610121565b80632048343d1461012657806341fd50581461013057806366fc6f381461017a578063715018a614610184575b600080fd5b61012e6107eb565b005b610138610952565b604051808273ffffffffffffffffffffffffffffffffffffffff1673ffffffffffffffffffffffffffffffffffffffff16815260200191505060405180910390f35b610182610978565b005b61018c610ac3565b005b610196610bfc565b005b6101a0610d20565b6040518086815260200180602001806020018060200180602001858103855289818151815260200191508051906020019080838360005b838110156101f25780820151818401526020810190506101d7565b50505050905090810190601f16801561021f5780820380516001836020036101000a031916815260200191505b50858103845288818151815260200191508051906020019080838360005b8381101561025857808201518184015260208101905061023d565b50505050905090810190601f1680156102855780820380516001836020036101000a031916815260200191505b50858103835287818151815260200191508051906020019080838360005b838110156102be5780820151818401526020810190506102a3565b50505050905090810190601f1680156102eb5780820380516001836020036101000a031916815260200191505b50858103825286818151815260200191508051906020019080838360005b83811015610324578082015181840152602081019050610309565b50505050905090810190601f1680156103515780820380516001836020036101000a031916815260200191505b50995050505050505050505060405180910390f35b61036e610e91565b6040518082815260200191505060405180910390f35b61038c610ef0565b005b610396610fc7565b604051808273ffffffffffffffffffffffffffffffffffffffff1673ffffffffffffffffffffffffffffffffffffffff16815260200191505060405180910390f35b6103e0610ff0565b604051808215151515815260200191505060405180910390f35b610402611047565b6040518080602001828103825283818151815260200191508051906020019080838360005b83811015610442578082015181840152602081019050610427565b50505050905090810190601f16801561046f5780820380516001836020036101000a031916815260200191505b509250505060405180910390f35b610485611272565b604051808273ffffffffffffffffffffffffffffffffffffffff1673ffffffffffffffffffffffffffffffffffffffff16815260200191505060405180910390f35b6104cf611298565b6040518080602001828103825283818151815260200191508051906020019080838360005b8381101561050f5780820151818401526020810190506104f4565b50505050905090810190601f16801561053c5780820380516001836020036101000a031916815260200191505b509250505060405180910390f35b61069a6004803603604081101561056057600080fd5b810190808035906020019064010000000081111561057d57600080fd5b82018360208201111561058f57600080fd5b803590602001918460018302840111640100000000831117156105b157600080fd5b91908080601f016020809104026020016040519081016040528093929190818152602001838380828437600081840152601f19601f8201169050808301925050505050505091929192908035906020019064010000000081111561061457600080fd5b82018360208201111561062657600080fd5b8035906020019184600183028401116401000000008311171561064857600080fd5b91908080601f016020809104026020016040519081016040528093929190818152602001838380828437600081840152601f19601f820116905080830192505050505050509192919290505050611455565b604051808215151515815260200191505060405180910390f35b6106bc611544565b604051808060200180602001838103835285818151815260200191508051906020019060200280838360005b838110156107035780820151818401526020810190506106e8565b50505050905001838103825284818151815260200191508051906020019060200280838360005b8381101561074557808201518184015260208101905061072a565b5050505090500194505050505060405180910390f35b610763611633565b005b61076d61170b565b005b6107a56004803603604081101561078557600080fd5b810190808035906020019092919080359060200190929190505050611862565b005b6107e9600480360360208110156107bd57600080fd5b81019080803573ffffffffffffffffffffffffffffffffffffffff169060200190929190505050611a3b565b005b6107f3610ff0565b610865576040517f08c379a00000000000000000000000000000000000000000000000000000000081526004018080602001828103825260208152602001807f4f776e61626c653a2063616c6c6572206973206e6f7420746865206f776e657281525060200191505060405180910390fd5b6001600481111561087257fe5b600360070160019054906101000a900460ff16600481111561089057fe5b14610903576040517f08c379a000000000000000000000000000000000000000000000000000000000815260040180806020018281038252601f8152602001807f456c207669616a65206465626520646520657374617220656e20637572736f0081525060200191505060405180910390fd5b60038060070160016101000a81548160ff0219169083600481111561092457fe5b02179055506000600360070160006101000a81548160ff0219169083600381111561094b57fe5b0217905550565b600160009054906101000a900473ffffffffffffffffffffffffffffffffffffffff1681565b610980610ff0565b6109f2576040517f08c379a00000000000000000000000000000000000000000000000000000000081526004018080602001828103825260208152602001807f4f776e61626c653a2063616c6c6572206973206e6f7420746865206f776e657281525060200191505060405180910390fd5b600060048111156109ff57fe5b600360070160019054906101000a900460ff166004811115610a1d57fe5b14610a73576040517f08c379a0000000000000000000000000000000000000000000000000000000008152600401808060200182810382526022815260200180611ca06022913960400191505060405180910390fd5b6001600360070160016101000a81548160ff02191690836004811115610a9557fe5b02179055506001600360070160006101000a81548160ff02191690836003811115610abc57fe5b0217905550565b610acb610ff0565b610b3d576040517f08c379a00000000000000000000000000000000000000000000000000000000081526004018080602001828103825260208152602001807f4f776e61626c653a2063616c6c6572206973206e6f7420746865206f776e657281525060200191505060405180910390fd5b600073ffffffffffffffffffffffffffffffffffffffff166000809054906101000a900473ffffffffffffffffffffffffffffffffffffffff1673ffffffffffffffffffffffffffffffffffffffff167f8be0079c531659141344cd1fd0a4f28419497f9722a3daafe3b4186f6b6457e060405160405180910390a360008060006101000a81548173ffffffffffffffffffffffffffffffffffffffff021916908373ffffffffffffffffffffffffffffffffffffffff160217905550565b610c04610ff0565b610c76576040517f08c379a00000000000000000000000000000000000000000000000000000000081526004018080602001828103825260208152602001807f4f776e61626c653a2063616c6c6572206973206e6f7420746865206f776e657281525060200191505060405180910390fd5b60036004811115610c8357fe5b600360070160019054906101000a900460ff166004811115610ca157fe5b14610cf7576040517f08c379a0000000000000000000000000000000000000000000000000000000008152600401808060200182810382526023815260200180611c5c6023913960400191505060405180910390fd5b6002600360070160016101000a81548160ff02191690836004811115610d1957fe5b0217905550565b600060608060608060036000015460036002016003600401610d40611047565b610d48611298565b838054600181600116156101000203166002900480601f016020809104026020016040519081016040528092919081815260200182805460018160011615610100020316600290048015610ddd5780601f10610db257610100808354040283529160200191610ddd565b820191906000526020600020905b815481529060010190602001808311610dc057829003601f168201915b50505050509350828054600181600116156101000203166002900480601f016020809104026020016040519081016040528092919081815260200182805460018160011615610100020316600290048015610e795780601f10610e4e57610100808354040283529160200191610e79565b820191906000526020600020905b815481529060010190602001808311610e5c57829003601f168201915b50505050509250945094509450945094509091929394565b6000806004811115610e9f57fe5b600360070160019054906101000a900460ff166004811115610ebd57fe5b1415610ec857600080fd5b600360050160036005018054905081548110610ee057fe5b9060005260206000200154905090565b610ef8610ff0565b610f6a576040517f08c379a00000000000000000000000000000000000000000000000000000000081526004018080602001828103825260208152602001807f4f776e61626c653a2063616c6c6572206973206e6f7420746865206f776e657281525060200191505060405180910390fd5b60026003811115610f7757fe5b600360070160009054906101000a900460ff166003811115610f9557fe5b14610f9f57600080fd5b60038060070160006101000a81548160ff02191690836003811115610fc057fe5b0217905550565b60008060009054906101000a900473ffffffffffffffffffffffffffffffffffffffff16905090565b60008060009054906101000a900473ffffffffffffffffffffffffffffffffffffffff1673ffffffffffffffffffffffffffffffffffffffff163373ffffffffffffffffffffffffffffffffffffffff1614905090565b60606001600481111561105657fe5b600360070160019054906101000a900460ff16600481111561107457fe5b14156110b7576040518060400160405280600881526020017f456e20637572736f000000000000000000000000000000000000000000000000815250905061126f565b600060048111156110c457fe5b600360070160019054906101000a900460ff1660048111156110e257fe5b1415611125576040518060400160405280600b81526020017f4e6f20696e69636961646f000000000000000000000000000000000000000000815250905061126f565b6002600481111561113257fe5b600360070160019054906101000a900460ff16600481111561115057fe5b1415611193576040518060400160405280600a81526020017f46696e616c697a61646f00000000000000000000000000000000000000000000815250905061126f565b600360048111156111a057fe5b600360070160019054906101000a900460ff1660048111156111be57fe5b1415611201576040518060400160405280600981526020017f526576697369c3b36e0000000000000000000000000000000000000000000000815250905061126f565b60048081111561120d57fe5b600360070160019054906101000a900460ff16600481111561122b57fe5b141561126e576040518060400160405280600981526020017f4e6f2076616c69646f0000000000000000000000000000000000000000000000815250905061126f565b5b90565b600260009054906101000a900473ffffffffffffffffffffffffffffffffffffffff1681565b6060600060038111156112a757fe5b600360070160009054906101000a900460ff1660038111156112c557fe5b1415611308576040518060400160405280600881526020017f416d61727261646f0000000000000000000000000000000000000000000000008152509050611452565b6001600381111561131557fe5b600360070160009054906101000a900460ff16600381111561133357fe5b1415611376576040518060400160405280600881526020017f53616c69656e646f0000000000000000000000000000000000000000000000008152509050611452565b6002600381111561138357fe5b600360070160009054906101000a900460ff1660038111156113a157fe5b14156113e4576040518060400160405280600881526020017f50657363616e646f0000000000000000000000000000000000000000000000008152509050611452565b6003808111156113f057fe5b600360070160009054906101000a900460ff16600381111561140e57fe5b1415611451576040518060400160405280600a81526020017f526567726573616e646f000000000000000000000000000000000000000000008152509050611452565b5b90565b6000816040516020018082805190602001908083835b6020831061148e578051825260208201915060208101905060208303925061146b565b6001836020036101000a03801982511681845116808217855250505050505090500191505060405160208183030381529060405280519060200120836040516020018082805190602001908083835b6020831061150057805182526020820191506020810190506020830392506114dd565b6001836020036101000a0380198251168184511680821785525050505050509050019150506040516020818303038152906040528051906020012014905092915050565b6060806000600481111561155457fe5b600360070160019054906101000a900460ff16600481111561157257fe5b141561157d57600080fd5b60036006016003600501818054806020026020016040519081016040528092919081815260200182805480156115d257602002820191906000526020600020905b8154815260200190600101908083116115be575b505050505091508080548060200260200160405190810160405280929190818152602001828054801561162457602002820191906000526020600020905b815481526020019060010190808311611610575b50505050509050915091509091565b61163b610ff0565b6116ad576040517f08c379a00000000000000000000000000000000000000000000000000000000081526004018080602001828103825260208152602001807f4f776e61626c653a2063616c6c6572206973206e6f7420746865206f776e657281525060200191505060405180910390fd5b600160038111156116ba57fe5b600360070160009054906101000a900460ff1660038111156116d857fe5b146116e257600080fd5b6002600360070160006101000a81548160ff0219169083600381111561170457fe5b0217905550565b611713610ff0565b611785576040517f08c379a00000000000000000000000000000000000000000000000000000000081526004018080602001828103825260208152602001807f4f776e61626c653a2063616c6c6572206973206e6f7420746865206f776e657281525060200191505060405180910390fd5b6003600481111561179257fe5b600360070160019054906101000a900460ff1660048111156117b057fe5b14806117e45750600260048111156117c457fe5b600360070160019054906101000a900460ff1660048111156117e257fe5b145b611839576040517f08c379a0000000000000000000000000000000000000000000000000000000008152600401808060200182810382526030815260200180611c066030913960400191505060405180910390fd5b6004600360070160016101000a81548160ff0219169083600481111561185b57fe5b0217905550565b61186a610ff0565b6118dc576040517f08c379a00000000000000000000000000000000000000000000000000000000081526004018080602001828103825260208152602001807f4f776e61626c653a2063616c6c6572206973206e6f7420746865206f776e657281525060200191505060405180910390fd5b600160048111156118e957fe5b600360070160019054906101000a900460ff16600481111561190757fe5b1461195d576040517f08c379a0000000000000000000000000000000000000000000000000000000008152600401808060200182810382526021815260200180611c7f6021913960400191505060405180910390fd5b60036005018290806001815401808255809150509060018203906000526020600020016000909192909190915055506003600601819080600181540180825580915050906001820390600052602060002001600090919290919091505550600260009054906101000a900473ffffffffffffffffffffffffffffffffffffffff1673ffffffffffffffffffffffffffffffffffffffff163373ffffffffffffffffffffffffffffffffffffffff167f1e0c997ea568bcfa832f8094688e8b81b68c1c6698d411f651ec7a6e38e20af560405160405180910390a35050565b611a43610ff0565b611ab5576040517f08c379a00000000000000000000000000000000000000000000000000000000081526004018080602001828103825260208152602001807f4f776e61626c653a2063616c6c6572206973206e6f7420746865206f776e657281525060200191505060405180910390fd5b611abe81611ac1565b50565b600073ffffffffffffffffffffffffffffffffffffffff168173ffffffffffffffffffffffffffffffffffffffff161415611b47576040517f08c379a0000000000000000000000000000000000000000000000000000000008152600401808060200182810382526026815260200180611c366026913960400191505060405180910390fd5b8073ffffffffffffffffffffffffffffffffffffffff166000809054906101000a900473ffffffffffffffffffffffffffffffffffffffff1673ffffffffffffffffffffffffffffffffffffffff167f8be0079c531659141344cd1fd0a4f28419497f9722a3daafe3b4186f6b6457e060405160405180910390a3806000806101000a81548173ffffffffffffffffffffffffffffffffffffffff021916908373ffffffffffffffffffffffffffffffffffffffff1602179055505056fe456c207669616a65206465626520646520657374617220656e20726576697369c3b36e206f2066696e616c697a61646f4f776e61626c653a206e6577206f776e657220697320746865207a65726f2061646472657373456c207669616a65206465626520646520657374617220656e20726576697369c3b36e456c207669616a65206e6f20736520656e6375656e74726120656e20637572736f456c207669616a652064656265206465206573746172206e6f20696e69636961646fa265627a7a72315820fb2ed482354609e17f02ab0196edbee7a110699e2237e2a71e8a570b8777459a64736f6c63430005100032",
  "source": "pragma solidity ^0.5.11; \n\nimport './Libraries/Ownable.sol';\n\ncontract Viaje is Ownable{\n    \n    address public barcoDir; // Direccion del contrato del barco\n    address public viajeDir; // Direccion del contrato del viaje\n    Faena viaje; \n\n    // Estructura de datos del viaje\n    enum EstadoBarco {amarrado, saliendo, pescando, regresando}\n    enum EstadoViaje {noiniciado, encurso, finalizado, revision, novalido}\n\n    struct Faena{\n        uint ID; //ID nico del viaje\n        string empresa;\n        string puertoIni; //puerto de salida\n        string puertoFinalReal; //puerto final real\n        string proposito; //propsito del viaje\n        bytes32 [] localizacion; //localizacin de la embarcacion (latitud/longitud)\n        uint [] timeLocalizacion; //timestamp del registro de la localizacin\n        EstadoBarco estadoBarco;\n\n        //noiniciado: smart contract levantado pero el barco no ha salido\n        //encurso: el barco se encuentra en proceso de viaje y pesca\n        //finalizado: el barco ha finalizado satisfactoriamente el viaje\n        //revision: el smart contract se encuentra en proceso de verificacin para pasar a finalizado\n        //novalido: despus de revisado o procesado posteriormente este smart contract queda anulado\n        EstadoViaje estadoViaje;\n    }\n\n   // Eventos\n    event travelCreated(address indexed owner, address indexed viajeDir);\n    event dataUploaded(address indexed owner, address indexed viajeDir);\n    \n    //Creacin del Viaje\n    constructor (uint _ID, string memory _empresa, string memory _puertoIni, string memory _proposito, address _barcoDir) public{\n        viajeDir = address(this);\n        barcoDir = _barcoDir;\n        viaje.ID = _ID;\n        viaje.empresa = _empresa;\n        viaje.puertoIni = _puertoIni;\n        viaje.puertoFinalReal = \"None\";\n        viaje.proposito = _proposito;\n        /// viaje.localizacion.push(0x0); \n        /// viaje.timeLocalizacion.push(0);\n        /// viaje.horaLocal.push(0);\n        viaje.estadoBarco = EstadoBarco.amarrado;\n        /// viaje.velRumbo.push(0x0);\n        /// viaje.area.push(0x0);\n        /// viaje.weather.push(0x0);\n        viaje.estadoViaje= EstadoViaje.noiniciado;\n        emit travelCreated(msg.sender, viajeDir);\n    }\n\n    // Refresco de los datos del viaje\n    function uploadData(bytes32  _localizacion, uint _timeLocalizacion) onlyOwner public{\n        require(viaje.estadoViaje == EstadoViaje.encurso, 'El viaje no se encuentra en curso');\n        viaje.localizacion.push(_localizacion);\n        viaje.timeLocalizacion.push(_timeLocalizacion);\n        emit dataUploaded(msg.sender, viajeDir);\n    }\n\n    // Getter de datos principales del viaje\n    function getViaje() public view returns (uint _ID, string memory _puertoIni, string memory _proposito, string memory _estadoViaje, string memory estadoBarco){\n        return (viaje.ID, viaje.puertoIni, viaje.proposito, getStatusViaje(), getStatusBarco());\n    }\n\n    // Devuelve los datos de la ruta (localizacin, velocidad rumbo...)\n    function getRoute() public view returns (uint [] memory _timeLocalizacion, bytes32[] memory _localizacion){\n        require(viaje.estadoViaje != EstadoViaje.noiniciado);\n        return (viaje.timeLocalizacion, viaje.localizacion);\n    }\n\n    //Devuelve la ltima localizacion\n    function getLocalization() public view returns(bytes32  _localizacion){\n        require(viaje.estadoViaje != EstadoViaje.noiniciado);\n        return viaje.localizacion[viaje.localizacion.length];\n    }\n\n    // Cambio de estado VIAJE no iniciado -> en curso\n    function startTravel() onlyOwner public{\n        require (viaje.estadoViaje == EstadoViaje.noiniciado, 'El viaje debe de estar no iniciado');\n        viaje.estadoViaje = EstadoViaje.encurso;\n        viaje.estadoBarco = EstadoBarco.saliendo;\n    }\n    \n    function getStatusViaje () public view returns (string memory _estadoViaje) {\n        if (viaje.estadoViaje == EstadoViaje.encurso) return \"En curso\";\n        if (viaje.estadoViaje == EstadoViaje.noiniciado) return \"No iniciado\";\n        if (viaje.estadoViaje == EstadoViaje.finalizado) return \"Finalizado\";\n        if (viaje.estadoViaje == EstadoViaje.revision) return \"Revisin\";\n        if (viaje.estadoViaje == EstadoViaje.novalido) return \"No valido\";\n    }\n\n    function getStatusBarco () public view returns (string memory _estadoBarco) {\n        if (viaje.estadoBarco == EstadoBarco.amarrado) return \"Amarrado\";\n        if (viaje.estadoBarco == EstadoBarco.saliendo) return \"Saliendo\";\n        if (viaje.estadoBarco == EstadoBarco.pescando) return \"Pescando\";\n        if (viaje.estadoBarco == EstadoBarco.regresando) return \"Regresando\";\n    }\n    \n    // Cambio de estado VIAJE en curso -> revision\n    function reviewTravel() onlyOwner public{\n        require (viaje.estadoViaje == EstadoViaje.encurso, 'El viaje debe de estar en curso');\n        viaje.estadoViaje = EstadoViaje.revision;\n        viaje.estadoBarco = EstadoBarco.amarrado;\n    }\n\n    // Cambio de estado VIAJE revision -> finalizado\n    function endTravel() onlyOwner public{\n        require (viaje.estadoViaje == EstadoViaje.revision, 'El viaje debe de estar en revisin');\n        viaje.estadoViaje = EstadoViaje.finalizado;\n    }\n\n    // Cambio de estado VIAJE revision || finalizado -> novalido\n    function novalidTravel() onlyOwner public{\n        require (viaje.estadoViaje == EstadoViaje.revision || viaje.estadoViaje == EstadoViaje.finalizado, 'El viaje debe de estar en revisin o finalizado');\n        viaje.estadoViaje = EstadoViaje.novalido;\n    }\n\n    // Cambio de estado BARCO saliendo -> pescando\n    function fishBoat() onlyOwner public{\n        require (viaje.estadoBarco == EstadoBarco.saliendo);\n        viaje.estadoBarco = EstadoBarco.pescando;\n    }\n\n    // Cambio de estado BARCO pescando -> regresando\n    function backBoat() onlyOwner public{\n        require (viaje.estadoBarco == EstadoBarco.pescando);\n        viaje.estadoBarco = EstadoBarco.regresando;\n    }\n\n    function compareStrings (string memory a, string memory b) public pure returns (bool) {\n        return (keccak256(abi.encodePacked((a))) == keccak256(abi.encodePacked((b))) );\n    }\n}\n",
  "sourcePath": "/home/hyperledger/tfm-puertos/tfm-puertos-contracts/contracts/Viaje.sol",
  "compiler": {
    "name": "solc",
    "version": "0.5.16+commit.9c3226ce.Emscripten.clang"
  },
  "schemaVersion": "3.2.4",
  "updatedAt": "2020-09-13T11:36:02.573Z",
  "networkType": "ethereum",
  "devdoc": {
    "methods": {
      "isOwner()": {
        "details": "Returns true if the caller is the current owner."
      },
      "owner()": {
        "details": "Returns the address of the current owner."
      },
      "renounceOwnership()": {
        "details": "Leaves the contract without owner. It will not be possible to call `onlyOwner` functions anymore. Can only be called by the current owner.     * > Note: Renouncing ownership will leave the contract without an owner, thereby removing any functionality that is only available to the owner."
      },
      "transferOwnership(address)": {
        "details": "Transfers ownership of the contract to a new account (`newOwner`). Can only be called by the current owner."
      }
    }
  },
  "userdoc": {
    "methods": {}
  }
}